{
  "_format": "hh-sol-artifact-1",
  "contractName": "LuckyBidAuction",
  "sourceName": "contracts/LuckyBidAuction.sol",
  "abi": [
    {
      "inputs": [],
      "name": "AlreadyBid",
      "type": "error"
    },
    {
      "inputs": [],
      "name": "AuctionAlreadyEnded",
      "type": "error"
    },
    {
      "inputs": [],
      "name": "AuctionNotClaimable",
      "type": "error"
    },
    {
      "inputs": [],
      "name": "AuctionNotEnded",
      "type": "error"
    },
    {
      "inputs": [],
      "name": "BiddingClosed",
      "type": "error"
    },
    {
      "inputs": [],
      "name": "InvalidPrice",
      "type": "error"
    },
    {
      "inputs": [],
      "name": "OnlySeller",
      "type": "error"
    },
    {
      "inputs": [],
      "name": "OnlyWinner",
      "type": "error"
    },
    {
      "anonymous": false,
      "inputs": [
        {
          "indexed": true,
          "internalType": "uint256",
          "name": "auctionId",
          "type": "uint256"
        },
        {
          "indexed": false,
          "internalType": "address",
          "name": "seller",
          "type": "address"
        },
        {
          "indexed": false,
          "internalType": "uint256",
          "name": "luckyPrice",
          "type": "uint256"
        },
        {
          "indexed": false,
          "internalType": "uint256",
          "name": "endTime",
          "type": "uint256"
        }
      ],
      "name": "AuctionCreated",
      "type": "event"
    },
    {
      "anonymous": false,
      "inputs": [
        {
          "indexed": true,
          "internalType": "uint256",
          "name": "auctionId",
          "type": "uint256"
        },
        {
          "indexed": false,
          "internalType": "address",
          "name": "winner",
          "type": "address"
        },
        {
          "indexed": false,
          "internalType": "uint256",
          "name": "winningBid",
          "type": "uint256"
        }
      ],
      "name": "AuctionEnded",
      "type": "event"
    },
    {
      "anonymous": false,
      "inputs": [
        {
          "indexed": true,
          "internalType": "uint256",
          "name": "auctionId",
          "type": "uint256"
        },
        {
          "indexed": false,
          "internalType": "address",
          "name": "bidder",
          "type": "address"
        },
        {
          "indexed": false,
          "internalType": "uint256",
          "name": "amount",
          "type": "uint256"
        }
      ],
      "name": "BidPlaced",
      "type": "event"
    },
    {
      "anonymous": false,
      "inputs": [
        {
          "indexed": true,
          "internalType": "uint256",
          "name": "auctionId",
          "type": "uint256"
        },
        {
          "indexed": false,
          "internalType": "address",
          "name": "seller",
          "type": "address"
        },
        {
          "indexed": false,
          "internalType": "uint256",
          "name": "amount",
          "type": "uint256"
        }
      ],
      "name": "FundsWithdrawn",
      "type": "event"
    },
    {
      "anonymous": false,
      "inputs": [
        {
          "indexed": true,
          "internalType": "uint256",
          "name": "auctionId",
          "type": "uint256"
        },
        {
          "indexed": false,
          "internalType": "address",
          "name": "winner",
          "type": "address"
        }
      ],
      "name": "NFTClaimed",
      "type": "event"
    },
    {
      "inputs": [],
      "name": "auctionCount",
      "outputs": [
        {
          "internalType": "uint256",
          "name": "",
          "type": "uint256"
        }
      ],
      "stateMutability": "view",
      "type": "function"
    },
    {
      "inputs": [
        {
          "internalType": "uint256",
          "name": "",
          "type": "uint256"
        }
      ],
      "name": "auctions",
      "outputs": [
        {
          "internalType": "address",
          "name": "seller",
          "type": "address"
        },
        {
          "internalType": "address",
          "name": "nftContract",
          "type": "address"
        },
        {
          "internalType": "uint256",
          "name": "tokenId",
          "type": "uint256"
        },
        {
          "internalType": "uint256",
          "name": "luckyPrice",
          "type": "uint256"
        },
        {
          "internalType": "uint256",
          "name": "endTime",
          "type": "uint256"
        },
        {
          "internalType": "bool",
          "name": "ended",
          "type": "bool"
        },
        {
          "internalType": "address",
          "name": "winner",
          "type": "address"
        },
        {
          "internalType": "bool",
          "name": "claimed",
          "type": "bool"
        }
      ],
      "stateMutability": "view",
      "type": "function"
    },
    {
      "inputs": [
        {
          "internalType": "uint256",
          "name": "",
          "type": "uint256"
        },
        {
          "internalType": "uint256",
          "name": "",
          "type": "uint256"
        }
      ],
      "name": "bidders",
      "outputs": [
        {
          "internalType": "address",
          "name": "",
          "type": "address"
        }
      ],
      "stateMutability": "view",
      "type": "function"
    },
    {
      "inputs": [
        {
          "internalType": "uint256",
          "name": "",
          "type": "uint256"
        },
        {
          "internalType": "address",
          "name": "",
          "type": "address"
        }
      ],
      "name": "bids",
      "outputs": [
        {
          "internalType": "uint256",
          "name": "",
          "type": "uint256"
        }
      ],
      "stateMutability": "view",
      "type": "function"
    },
    {
      "inputs": [
        {
          "internalType": "uint256",
          "name": "auctionId",
          "type": "uint256"
        }
      ],
      "name": "claimLuckyNFT",
      "outputs": [],
      "stateMutability": "nonpayable",
      "type": "function"
    },
    {
      "inputs": [
        {
          "internalType": "address",
          "name": "_nftContract",
          "type": "address"
        },
        {
          "internalType": "uint256",
          "name": "_tokenId",
          "type": "uint256"
        },
        {
          "internalType": "uint256",
          "name": "_luckyPrice",
          "type": "uint256"
        },
        {
          "internalType": "uint256",
          "name": "_duration",
          "type": "uint256"
        }
      ],
      "name": "createLuckyAuction",
      "outputs": [],
      "stateMutability": "nonpayable",
      "type": "function"
    },
    {
      "inputs": [
        {
          "internalType": "uint256",
          "name": "auctionId",
          "type": "uint256"
        }
      ],
      "name": "endLuckyAuction",
      "outputs": [],
      "stateMutability": "nonpayable",
      "type": "function"
    },
    {
      "inputs": [
        {
          "internalType": "uint256",
          "name": "auctionId",
          "type": "uint256"
        }
      ],
      "name": "forceEndAuction",
      "outputs": [],
      "stateMutability": "nonpayable",
      "type": "function"
    },
    {
      "inputs": [
        {
          "internalType": "uint256",
          "name": "auctionId",
          "type": "uint256"
        }
      ],
      "name": "getLuckyAuction",
      "outputs": [
        {
          "internalType": "address",
          "name": "seller",
          "type": "address"
        },
        {
          "internalType": "address",
          "name": "nftContract",
          "type": "address"
        },
        {
          "internalType": "uint256",
          "name": "tokenId",
          "type": "uint256"
        },
        {
          "internalType": "uint256",
          "name": "luckyPrice",
          "type": "uint256"
        },
        {
          "internalType": "uint256",
          "name": "endTime",
          "type": "uint256"
        },
        {
          "internalType": "bool",
          "name": "ended",
          "type": "bool"
        },
        {
          "internalType": "address",
          "name": "winner",
          "type": "address"
        },
        {
          "internalType": "bool",
          "name": "claimed",
          "type": "bool"
        }
      ],
      "stateMutability": "view",
      "type": "function"
    },
    {
      "inputs": [
        {
          "internalType": "uint256",
          "name": "auctionId",
          "type": "uint256"
        }
      ],
      "name": "placeLuckyBid",
      "outputs": [],
      "stateMutability": "payable",
      "type": "function"
    },
    {
      "inputs": [
        {
          "internalType": "uint256",
          "name": "auctionId",
          "type": "uint256"
        }
      ],
      "name": "withdrawLuckyFunds",
      "outputs": [],
      "stateMutability": "nonpayable",
      "type": "function"
    }
  ],
  "bytecode": "0x6080604052348015600f57600080fd5b5060016000819055506119d3806100276000396000f3fe60806040526004361061009c5760003560e01c8063b3233bbb11610064578063b3233bbb146101ba578063c973c359146101e3578063c9aa311e1461020c578063d1c1120514610228578063d7a7a7c114610265578063e4dffeec1461028e5761009c565b80632ad71573146100a15780633f1ffcec146100cc578063571a26a0146101095780639633891d1461014d578063aeb1eb8814610176575b600080fd5b3480156100ad57600080fd5b506100b66102b7565b6040516100c391906114d6565b60405180910390f35b3480156100d857600080fd5b506100f360048036038101906100ee9190611580565b6102bd565b60405161010091906114d6565b60405180910390f35b34801561011557600080fd5b50610130600480360381019061012b91906115c0565b6102e2565b604051610144989796959493929190611617565b60405180910390f35b34801561015957600080fd5b50610174600480360381019061016f9190611695565b6103a4565b005b34801561018257600080fd5b5061019d600480360381019061019891906115c0565b610686565b6040516101b1989796959493929190611617565b60405180910390f35b3480156101c657600080fd5b506101e160048036038101906101dc91906115c0565b61084f565b005b3480156101ef57600080fd5b5061020a600480360381019061020591906115c0565b610b90565b005b610226600480360381019061022191906115c0565b610c43565b005b34801561023457600080fd5b5061024f600480360381019061024a91906116fc565b610e6e565b60405161025c919061173c565b60405180910390f35b34801561027157600080fd5b5061028c600480360381019061028791906115c0565b610ebc565b005b34801561029a57600080fd5b506102b560048036038101906102b091906115c0565b610fad565b005b60015481565b6003602052816000526040600020602052806000526040600020600091509150505481565b60026020528060005260406000206000915090508060000160009054906101000a900473ffffffffffffffffffffffffffffffffffffffff16908060010160009054906101000a900473ffffffffffffffffffffffffffffffffffffffff16908060020154908060030154908060040154908060050160009054906101000a900460ff16908060050160019054906101000a900473ffffffffffffffffffffffffffffffffffffffff16908060050160159054906101000a900460ff16905088565b600081036103dd576040517ebfc92100000000000000000000000000000000000000000000000000000000815260040160405180910390fd5b8373ffffffffffffffffffffffffffffffffffffffff166323b872dd3330866040518463ffffffff1660e01b815260040161041a93929190611757565b600060405180830381600087803b15801561043457600080fd5b505af1158015610448573d6000803e3d6000fd5b505050506040518061010001604052803373ffffffffffffffffffffffffffffffffffffffff1681526020018573ffffffffffffffffffffffffffffffffffffffff16815260200184815260200183815260200182426104a891906117bd565b8152602001600015158152602001600073ffffffffffffffffffffffffffffffffffffffff1681526020016000151581525060026000600154815260200190815260200160002060008201518160000160006101000a81548173ffffffffffffffffffffffffffffffffffffffff021916908373ffffffffffffffffffffffffffffffffffffffff16021790555060208201518160010160006101000a81548173ffffffffffffffffffffffffffffffffffffffff021916908373ffffffffffffffffffffffffffffffffffffffff16021790555060408201518160020155606082015181600301556080820151816004015560a08201518160050160006101000a81548160ff02191690831515021790555060c08201518160050160016101000a81548173ffffffffffffffffffffffffffffffffffffffff021916908373ffffffffffffffffffffffffffffffffffffffff16021790555060e08201518160050160156101000a81548160ff0219169083151502179055509050506001547fc9050d42180a61cb0d9ebb8ad118b62fe6eab12cf12ff752c4a0cc7da9ddf6273384844261065791906117bd565b604051610666939291906117f1565b60405180910390a260016000815480929190600101919050555050505050565b6000806000806000806000806000600260008b8152602001908152602001600020604051806101000160405290816000820160009054906101000a900473ffffffffffffffffffffffffffffffffffffffff1673ffffffffffffffffffffffffffffffffffffffff1673ffffffffffffffffffffffffffffffffffffffff1681526020016001820160009054906101000a900473ffffffffffffffffffffffffffffffffffffffff1673ffffffffffffffffffffffffffffffffffffffff1673ffffffffffffffffffffffffffffffffffffffff1681526020016002820154815260200160038201548152602001600482015481526020016005820160009054906101000a900460ff161515151581526020016005820160019054906101000a900473ffffffffffffffffffffffffffffffffffffffff1673ffffffffffffffffffffffffffffffffffffffff1673ffffffffffffffffffffffffffffffffffffffff1681526020016005820160159054906101000a900460ff1615151515815250509050806000015181602001518260400151836060015184608001518560a001518660c001518760e001519850985098509850985098509850985050919395975091939597565b806001548110610894576040517f08c379a000000000000000000000000000000000000000000000000000000000815260040161088b90611885565b60405180910390fd5b61089c611214565b60006002600084815260200190815260200160002090508060050160009054906101000a900460ff166108fb576040517f6463738900000000000000000000000000000000000000000000000000000000815260040160405180910390fd5b8060000160009054906101000a900473ffffffffffffffffffffffffffffffffffffffff1673ffffffffffffffffffffffffffffffffffffffff163373ffffffffffffffffffffffffffffffffffffffff1614610984576040517f85d1f72600000000000000000000000000000000000000000000000000000000815260040160405180910390fd5b600073ffffffffffffffffffffffffffffffffffffffff168160050160019054906101000a900473ffffffffffffffffffffffffffffffffffffffff1673ffffffffffffffffffffffffffffffffffffffff1603610a0e576040517fb126b19a00000000000000000000000000000000000000000000000000000000815260040160405180910390fd5b60006003600085815260200190815260200160002060008360050160019054906101000a900473ffffffffffffffffffffffffffffffffffffffff1673ffffffffffffffffffffffffffffffffffffffff1673ffffffffffffffffffffffffffffffffffffffff16815260200190815260200160002054905060006003600086815260200190815260200160002060008460050160019054906101000a900473ffffffffffffffffffffffffffffffffffffffff1673ffffffffffffffffffffffffffffffffffffffff1673ffffffffffffffffffffffffffffffffffffffff168152602001908152602001600020819055503373ffffffffffffffffffffffffffffffffffffffff166108fc829081150290604051600060405180830381858888f19350505050158015610b47573d6000803e3d6000fd5b50837ff440aec6b52895984d061d622e6edeba6210f7c3e059be920663140c084560d73383604051610b7a9291906118a5565b60405180910390a25050610b8c611263565b5050565b806001548110610bd5576040517f08c379a0000000000000000000000000000000000000000000000000000000008152600401610bcc90611885565b60405180910390fd5b60006002600084815260200190815260200160002090508060050160009054906101000a900460ff1615610c35576040517fd02e774d00000000000000000000000000000000000000000000000000000000815260040160405180910390fd5b610c3e8361126d565b505050565b806001548110610c88576040517f08c379a0000000000000000000000000000000000000000000000000000000008152600401610c7f90611885565b60405180910390fd5b600060026000848152602001908152602001600020905080600401544210610cdc576040517f8083ad0300000000000000000000000000000000000000000000000000000000815260040160405180910390fd5b60006003600085815260200190815260200160002060003373ffffffffffffffffffffffffffffffffffffffff1673ffffffffffffffffffffffffffffffffffffffff1681526020019081526020016000205414610d66576040517f0d2f067600000000000000000000000000000000000000000000000000000000815260040160405180910390fd5b346003600085815260200190815260200160002060003373ffffffffffffffffffffffffffffffffffffffff1673ffffffffffffffffffffffffffffffffffffffff1681526020019081526020016000208190555060046000848152602001908152602001600020339080600181540180825580915050600190039060005260206000200160009091909190916101000a81548173ffffffffffffffffffffffffffffffffffffffff021916908373ffffffffffffffffffffffffffffffffffffffff160217905550827f0e54eff26401bf69b81b26f60bd85ef47f5d85275c1d268d84f68d6897431c473334604051610e619291906118a5565b60405180910390a2505050565b60046020528160005260406000208181548110610e8a57600080fd5b906000526020600020016000915091509054906101000a900473ffffffffffffffffffffffffffffffffffffffff1681565b806001548110610f01576040517f08c379a0000000000000000000000000000000000000000000000000000000008152600401610ef890611885565b60405180910390fd5b60006002600084815260200190815260200160002090508060040154421015610f56576040517f6463738900000000000000000000000000000000000000000000000000000000815260040160405180910390fd5b8060050160009054906101000a900460ff1615610f9f576040517fd02e774d00000000000000000000000000000000000000000000000000000000815260040160405180910390fd5b610fa88361126d565b505050565b806001548110610ff2576040517f08c379a0000000000000000000000000000000000000000000000000000000008152600401610fe990611885565b60405180910390fd5b60006002600084815260200190815260200160002090508060050160009054906101000a900460ff16611051576040517f6463738900000000000000000000000000000000000000000000000000000000815260040160405180910390fd5b8060050160019054906101000a900473ffffffffffffffffffffffffffffffffffffffff1673ffffffffffffffffffffffffffffffffffffffff163373ffffffffffffffffffffffffffffffffffffffff16146110da576040517f760576b900000000000000000000000000000000000000000000000000000000815260040160405180910390fd5b8060050160159054906101000a900460ff1615611123576040517fb126b19a00000000000000000000000000000000000000000000000000000000815260040160405180910390fd5b60018160050160156101000a81548160ff0219169083151502179055508060010160009054906101000a900473ffffffffffffffffffffffffffffffffffffffff1673ffffffffffffffffffffffffffffffffffffffff166323b872dd303384600201546040518463ffffffff1660e01b81526004016111a593929190611757565b600060405180830381600087803b1580156111bf57600080fd5b505af11580156111d3573d6000803e3d6000fd5b50505050827fec5f0dee1fc3c7beab746dbd5883eee3f1c9bc07fe02dd318c553c5243f52fea33604051611207919061173c565b60405180910390a2505050565b600260005403611259576040517f08c379a00000000000000000000000000000000000000000000000000000000081526004016112509061191a565b60405180910390fd5b6002600081905550565b6001600081905550565b600060026000838152602001908152602001600020905060007fffffffffffffffffffffffffffffffffffffffffffffffffffffffffffffffff9050600080600090505b60046000868152602001908152602001600020805490508110156113cc5760006004600087815260200190815260200160002082815481106112f6576112f561193a565b5b9060005260206000200160009054906101000a900473ffffffffffffffffffffffffffffffffffffffff16905060006003600088815260200190815260200160002060008373ffffffffffffffffffffffffffffffffffffffff1673ffffffffffffffffffffffffffffffffffffffff16815260200190815260200160002054905060008660030154821161139a578187600301546113959190611969565b6113ab565b8660030154826113aa9190611969565b5b9050858110156113bc578095508294505b50505080806001019150506112b1565b5060018360050160006101000a81548160ff021916908315150217905550808360050160016101000a81548173ffffffffffffffffffffffffffffffffffffffff021916908373ffffffffffffffffffffffffffffffffffffffff160217905550837fd2aa34a4fdbbc6dff6a3e56f46e0f3ae2a31d7785ff3487aa5c95c642acea501826003600088815260200190815260200160002060008573ffffffffffffffffffffffffffffffffffffffff1673ffffffffffffffffffffffffffffffffffffffff168152602001908152602001600020546040516114af9291906118a5565b60405180910390a250505050565b6000819050919050565b6114d0816114bd565b82525050565b60006020820190506114eb60008301846114c7565b92915050565b600080fd5b6114ff816114bd565b811461150a57600080fd5b50565b60008135905061151c816114f6565b92915050565b600073ffffffffffffffffffffffffffffffffffffffff82169050919050565b600061154d82611522565b9050919050565b61155d81611542565b811461156857600080fd5b50565b60008135905061157a81611554565b92915050565b60008060408385031215611597576115966114f1565b5b60006115a58582860161150d565b92505060206115b68582860161156b565b9150509250929050565b6000602082840312156115d6576115d56114f1565b5b60006115e48482850161150d565b91505092915050565b6115f681611542565b82525050565b60008115159050919050565b611611816115fc565b82525050565b60006101008201905061162d600083018b6115ed565b61163a602083018a6115ed565b61164760408301896114c7565b61165460608301886114c7565b61166160808301876114c7565b61166e60a0830186611608565b61167b60c08301856115ed565b61168860e0830184611608565b9998505050505050505050565b600080600080608085870312156116af576116ae6114f1565b5b60006116bd8782880161156b565b94505060206116ce8782880161150d565b93505060406116df8782880161150d565b92505060606116f08782880161150d565b91505092959194509250565b60008060408385031215611713576117126114f1565b5b60006117218582860161150d565b92505060206117328582860161150d565b9150509250929050565b600060208201905061175160008301846115ed565b92915050565b600060608201905061176c60008301866115ed565b61177960208301856115ed565b61178660408301846114c7565b949350505050565b7f4e487b7100000000000000000000000000000000000000000000000000000000600052601160045260246000fd5b60006117c8826114bd565b91506117d3836114bd565b92508282019050808211156117eb576117ea61178e565b5b92915050565b600060608201905061180660008301866115ed565b61181360208301856114c7565b61182060408301846114c7565b949350505050565b600082825260208201905092915050565b7f41756374696f6e20646f6573206e6f7420657869737400000000000000000000600082015250565b600061186f601683611828565b915061187a82611839565b602082019050919050565b6000602082019050818103600083015261189e81611862565b9050919050565b60006040820190506118ba60008301856115ed565b6118c760208301846114c7565b9392505050565b7f5265656e7472616e637947756172643a207265656e7472616e742063616c6c00600082015250565b6000611904601f83611828565b915061190f826118ce565b602082019050919050565b60006020820190508181036000830152611933816118f7565b9050919050565b7f4e487b7100000000000000000000000000000000000000000000000000000000600052603260045260246000fd5b6000611974826114bd565b915061197f836114bd565b92508282039050818111156119975761199661178e565b5b9291505056fea2646970667358221220a64cc6f666a801c90dd9dc0b56c00e8257a89f585d89dbfc28ddbf13614d0c0964736f6c634300081c0033",
  "linkReferences": {},
  "deployedLinkReferences": {}
}