{
  "_format": "hh-sol-artifact-1",
  "contractName": "EnglishAuction",
  "sourceName": "contracts/EnglishAuction.sol",
  "abi": [
    {
      "inputs": [],
      "stateMutability": "nonpayable",
      "type": "constructor"
    },
    {
      "inputs": [],
      "name": "AuctionAlreadyEnded",
      "type": "error"
    },
    {
      "inputs": [],
      "name": "AuctionNotEnded",
      "type": "error"
    },
    {
      "inputs": [],
      "name": "BiddingClosed",
      "type": "error"
    },
    {
      "inputs": [],
      "name": "InvalidPrice",
      "type": "error"
    },
    {
      "inputs": [],
      "name": "NotAdmin",
      "type": "error"
    },
    {
      "inputs": [],
      "name": "OnlySeller",
      "type": "error"
    },
    {
      "inputs": [],
      "name": "OnlyWinner",
      "type": "error"
    },
    {
      "anonymous": false,
      "inputs": [
        {
          "indexed": true,
          "internalType": "uint256",
          "name": "auctionId",
          "type": "uint256"
        },
        {
          "indexed": true,
          "internalType": "address",
          "name": "seller",
          "type": "address"
        },
        {
          "indexed": false,
          "internalType": "address",
          "name": "nftContract",
          "type": "address"
        },
        {
          "indexed": false,
          "internalType": "uint256",
          "name": "tokenId",
          "type": "uint256"
        },
        {
          "indexed": false,
          "internalType": "uint256",
          "name": "endTime",
          "type": "uint256"
        }
      ],
      "name": "AuctionCreated",
      "type": "event"
    },
    {
      "anonymous": false,
      "inputs": [
        {
          "indexed": true,
          "internalType": "uint256",
          "name": "auctionId",
          "type": "uint256"
        },
        {
          "indexed": false,
          "internalType": "address",
          "name": "winner",
          "type": "address"
        },
        {
          "indexed": false,
          "internalType": "uint256",
          "name": "amount",
          "type": "uint256"
        }
      ],
      "name": "AuctionEnded",
      "type": "event"
    },
    {
      "anonymous": false,
      "inputs": [
        {
          "indexed": true,
          "internalType": "uint256",
          "name": "auctionId",
          "type": "uint256"
        },
        {
          "indexed": true,
          "internalType": "address",
          "name": "bidder",
          "type": "address"
        },
        {
          "indexed": false,
          "internalType": "uint256",
          "name": "amount",
          "type": "uint256"
        }
      ],
      "name": "BidPlaced",
      "type": "event"
    },
    {
      "anonymous": false,
      "inputs": [
        {
          "indexed": true,
          "internalType": "uint256",
          "name": "auctionId",
          "type": "uint256"
        },
        {
          "indexed": false,
          "internalType": "address",
          "name": "seller",
          "type": "address"
        },
        {
          "indexed": false,
          "internalType": "uint256",
          "name": "amount",
          "type": "uint256"
        }
      ],
      "name": "FundsWithdrawn",
      "type": "event"
    },
    {
      "anonymous": false,
      "inputs": [
        {
          "indexed": true,
          "internalType": "uint256",
          "name": "auctionId",
          "type": "uint256"
        },
        {
          "indexed": false,
          "internalType": "address",
          "name": "winner",
          "type": "address"
        }
      ],
      "name": "NFTClaimed",
      "type": "event"
    },
    {
      "inputs": [],
      "name": "admin",
      "outputs": [
        {
          "internalType": "address",
          "name": "",
          "type": "address"
        }
      ],
      "stateMutability": "view",
      "type": "function"
    },
    {
      "inputs": [],
      "name": "auctionCounter",
      "outputs": [
        {
          "internalType": "uint256",
          "name": "",
          "type": "uint256"
        }
      ],
      "stateMutability": "view",
      "type": "function"
    },
    {
      "inputs": [
        {
          "internalType": "uint256",
          "name": "",
          "type": "uint256"
        }
      ],
      "name": "auctions",
      "outputs": [
        {
          "internalType": "address",
          "name": "seller",
          "type": "address"
        },
        {
          "internalType": "address",
          "name": "nftContract",
          "type": "address"
        },
        {
          "internalType": "uint256",
          "name": "tokenId",
          "type": "uint256"
        },
        {
          "internalType": "uint256",
          "name": "endTime",
          "type": "uint256"
        },
        {
          "internalType": "uint256",
          "name": "highestBid",
          "type": "uint256"
        },
        {
          "internalType": "address",
          "name": "highestBidder",
          "type": "address"
        },
        {
          "internalType": "bool",
          "name": "ended",
          "type": "bool"
        }
      ],
      "stateMutability": "view",
      "type": "function"
    },
    {
      "inputs": [
        {
          "internalType": "uint256",
          "name": "",
          "type": "uint256"
        },
        {
          "internalType": "address",
          "name": "",
          "type": "address"
        }
      ],
      "name": "bids",
      "outputs": [
        {
          "internalType": "uint256",
          "name": "",
          "type": "uint256"
        }
      ],
      "stateMutability": "view",
      "type": "function"
    },
    {
      "inputs": [
        {
          "internalType": "uint256",
          "name": "auctionId",
          "type": "uint256"
        }
      ],
      "name": "claimNFT",
      "outputs": [],
      "stateMutability": "nonpayable",
      "type": "function"
    },
    {
      "inputs": [
        {
          "internalType": "address",
          "name": "_nftContract",
          "type": "address"
        },
        {
          "internalType": "uint256",
          "name": "_tokenId",
          "type": "uint256"
        },
        {
          "internalType": "uint256",
          "name": "_duration",
          "type": "uint256"
        },
        {
          "internalType": "uint256",
          "name": "_startingBid",
          "type": "uint256"
        }
      ],
      "name": "createAuction",
      "outputs": [],
      "stateMutability": "nonpayable",
      "type": "function"
    },
    {
      "inputs": [
        {
          "internalType": "uint256",
          "name": "auctionId",
          "type": "uint256"
        }
      ],
      "name": "endAuction",
      "outputs": [],
      "stateMutability": "nonpayable",
      "type": "function"
    },
    {
      "inputs": [
        {
          "internalType": "uint256",
          "name": "auctionId",
          "type": "uint256"
        }
      ],
      "name": "forceEndAuction",
      "outputs": [],
      "stateMutability": "nonpayable",
      "type": "function"
    },
    {
      "inputs": [
        {
          "internalType": "uint256",
          "name": "auctionId",
          "type": "uint256"
        }
      ],
      "name": "getAuction",
      "outputs": [
        {
          "internalType": "address",
          "name": "seller",
          "type": "address"
        },
        {
          "internalType": "uint256",
          "name": "tokenId",
          "type": "uint256"
        },
        {
          "internalType": "uint256",
          "name": "highestBid",
          "type": "uint256"
        },
        {
          "internalType": "address",
          "name": "highestBidder",
          "type": "address"
        },
        {
          "internalType": "uint256",
          "name": "endTime",
          "type": "uint256"
        },
        {
          "internalType": "bool",
          "name": "ended",
          "type": "bool"
        }
      ],
      "stateMutability": "view",
      "type": "function"
    },
    {
      "inputs": [
        {
          "internalType": "uint256",
          "name": "auctionId",
          "type": "uint256"
        }
      ],
      "name": "placeBid",
      "outputs": [],
      "stateMutability": "payable",
      "type": "function"
    },
    {
      "inputs": [
        {
          "internalType": "uint256",
          "name": "auctionId",
          "type": "uint256"
        }
      ],
      "name": "withdrawFunds",
      "outputs": [],
      "stateMutability": "nonpayable",
      "type": "function"
    },
    {
      "inputs": [
        {
          "internalType": "uint256",
          "name": "auctionId",
          "type": "uint256"
        }
      ],
      "name": "withdrawRefund",
      "outputs": [],
      "stateMutability": "nonpayable",
      "type": "function"
    }
  ],
  "bytecode": "0x6080604052348015600f57600080fd5b50600160008190555033600160006101000a81548173ffffffffffffffffffffffffffffffffffffffff021916908373ffffffffffffffffffffffffffffffffffffffff1602179055506117d8806100686000396000f3fe6080604052600436106100a75760003560e01c80639d153495116100645780639d153495146101dc578063a7e7664414610205578063b9a2de3a14610230578063c973c35914610259578063f851a44014610282578063fe5c873a146102ad576100a7565b8063155dd5ee146100ac5780633f1ffcec146100d5578063571a26a01461011257806361beb1d71461015557806378bd79351461017e5780639979ef45146101c0575b600080fd5b3480156100b857600080fd5b506100d360048036038101906100ce919061134e565b6102d6565b005b3480156100e157600080fd5b506100fc60048036038101906100f791906113d9565b6104ad565b6040516101099190611428565b60405180910390f35b34801561011e57600080fd5b506101396004803603810190610134919061134e565b6104d2565b60405161014c979695949392919061146d565b60405180910390f35b34801561016157600080fd5b5061017c600480360381019061017791906114dc565b610581565b005b34801561018a57600080fd5b506101a560048036038101906101a0919061134e565b610850565b6040516101b796959493929190611543565b60405180910390f35b6101da60048036038101906101d5919061134e565b6109ea565b005b3480156101e857600080fd5b5061020360048036038101906101fe919061134e565b610c47565b005b34801561021157600080fd5b5061021a610d76565b6040516102279190611428565b60405180910390f35b34801561023c57600080fd5b506102576004803603810190610252919061134e565b610d7c565b005b34801561026557600080fd5b50610280600480360381019061027b919061134e565b610ee3565b005b34801561028e57600080fd5b50610297611093565b6040516102a491906115a4565b60405180910390f35b3480156102b957600080fd5b506102d460048036038101906102cf919061134e565b6110b9565b005b80600254811061031b576040517f08c379a00000000000000000000000000000000000000000000000000000000081526004016103129061161c565b60405180910390fd5b6103236112ba565b60006003600084815260200190815260200160002090508060050160149054906101000a900460ff16610382576040517f6463738900000000000000000000000000000000000000000000000000000000815260040160405180910390fd5b8060000160009054906101000a900473ffffffffffffffffffffffffffffffffffffffff1673ffffffffffffffffffffffffffffffffffffffff163373ffffffffffffffffffffffffffffffffffffffff161461040b576040517f85d1f72600000000000000000000000000000000000000000000000000000000815260040160405180910390fd5b600081600401549050600082600401819055503373ffffffffffffffffffffffffffffffffffffffff166108fc829081150290604051600060405180830381858888f19350505050158015610464573d6000803e3d6000fd5b50837ff440aec6b52895984d061d622e6edeba6210f7c3e059be920663140c084560d7338360405161049792919061163c565b60405180910390a250506104a9611309565b5050565b6004602052816000526040600020602052806000526040600020600091509150505481565b60036020528060005260406000206000915090508060000160009054906101000a900473ffffffffffffffffffffffffffffffffffffffff16908060010160009054906101000a900473ffffffffffffffffffffffffffffffffffffffff16908060020154908060030154908060040154908060050160009054906101000a900473ffffffffffffffffffffffffffffffffffffffff16908060050160149054906101000a900460ff16905087565b600082036105ba576040517ebfc92100000000000000000000000000000000000000000000000000000000815260040160405180910390fd5b8373ffffffffffffffffffffffffffffffffffffffff166323b872dd3330866040518463ffffffff1660e01b81526004016105f793929190611665565b600060405180830381600087803b15801561061157600080fd5b505af1158015610625573d6000803e3d6000fd5b505050506040518060e001604052803373ffffffffffffffffffffffffffffffffffffffff1681526020018573ffffffffffffffffffffffffffffffffffffffff168152602001848152602001834261067e91906116cb565b8152602001828152602001600073ffffffffffffffffffffffffffffffffffffffff1681526020016000151581525060036000600254815260200190815260200160002060008201518160000160006101000a81548173ffffffffffffffffffffffffffffffffffffffff021916908373ffffffffffffffffffffffffffffffffffffffff16021790555060208201518160010160006101000a81548173ffffffffffffffffffffffffffffffffffffffff021916908373ffffffffffffffffffffffffffffffffffffffff16021790555060408201518160020155606082015181600301556080820151816004015560a08201518160050160006101000a81548173ffffffffffffffffffffffffffffffffffffffff021916908373ffffffffffffffffffffffffffffffffffffffff16021790555060c08201518160050160146101000a81548160ff0219169083151502179055509050503373ffffffffffffffffffffffffffffffffffffffff166002547f1e9fc4128626f087a2c46b8f819387ca9e130c81ced063176def67bc205b3b008686864261082191906116cb565b604051610830939291906116ff565b60405180910390a360026000815480929190600101919050555050505050565b6000806000806000806000600360008981526020019081526020016000206040518060e00160405290816000820160009054906101000a900473ffffffffffffffffffffffffffffffffffffffff1673ffffffffffffffffffffffffffffffffffffffff1673ffffffffffffffffffffffffffffffffffffffff1681526020016001820160009054906101000a900473ffffffffffffffffffffffffffffffffffffffff1673ffffffffffffffffffffffffffffffffffffffff1673ffffffffffffffffffffffffffffffffffffffff1681526020016002820154815260200160038201548152602001600482015481526020016005820160009054906101000a900473ffffffffffffffffffffffffffffffffffffffff1673ffffffffffffffffffffffffffffffffffffffff1673ffffffffffffffffffffffffffffffffffffffff1681526020016005820160149054906101000a900460ff16151515158152505090508060000151816040015182608001518360a0015184606001518560c001519650965096509650965096505091939550919395565b806002548110610a2f576040517f08c379a0000000000000000000000000000000000000000000000000000000008152600401610a269061161c565b60405180910390fd5b600060036000848152602001908152602001600020905080600301544210610a83576040517f8083ad0300000000000000000000000000000000000000000000000000000000815260040160405180910390fd5b80600401543411610abf576040517ebfc92100000000000000000000000000000000000000000000000000000000815260040160405180910390fd5b600073ffffffffffffffffffffffffffffffffffffffff168160050160009054906101000a900473ffffffffffffffffffffffffffffffffffffffff1673ffffffffffffffffffffffffffffffffffffffff1614610ba75780600401546004600085815260200190815260200160002060008360050160009054906101000a900473ffffffffffffffffffffffffffffffffffffffff1673ffffffffffffffffffffffffffffffffffffffff1673ffffffffffffffffffffffffffffffffffffffff1681526020019081526020016000206000828254610b9f91906116cb565b925050819055505b348160040181905550338160050160006101000a81548173ffffffffffffffffffffffffffffffffffffffff021916908373ffffffffffffffffffffffffffffffffffffffff1602179055503373ffffffffffffffffffffffffffffffffffffffff16837f0e54eff26401bf69b81b26f60bd85ef47f5d85275c1d268d84f68d6897431c4734604051610c3a9190611428565b60405180910390a3505050565b60006004600083815260200190815260200160002060003373ffffffffffffffffffffffffffffffffffffffff1673ffffffffffffffffffffffffffffffffffffffff16815260200190815260200160002054905060008103610cd5576040517ebfc92100000000000000000000000000000000000000000000000000000000815260040160405180910390fd5b60006004600084815260200190815260200160002060003373ffffffffffffffffffffffffffffffffffffffff1673ffffffffffffffffffffffffffffffffffffffff168152602001908152602001600020819055503373ffffffffffffffffffffffffffffffffffffffff166108fc829081150290604051600060405180830381858888f19350505050158015610d71573d6000803e3d6000fd5b505050565b60025481565b806002548110610dc1576040517f08c379a0000000000000000000000000000000000000000000000000000000008152600401610db89061161c565b60405180910390fd5b60006003600084815260200190815260200160002090508060030154421015610e16576040517f6463738900000000000000000000000000000000000000000000000000000000815260040160405180910390fd5b8060050160149054906101000a900460ff1615610e5f576040517fd02e774d00000000000000000000000000000000000000000000000000000000815260040160405180910390fd5b60018160050160146101000a81548160ff021916908315150217905550827fd2aa34a4fdbbc6dff6a3e56f46e0f3ae2a31d7785ff3487aa5c95c642acea5018260050160009054906101000a900473ffffffffffffffffffffffffffffffffffffffff168360040154604051610ed692919061163c565b60405180910390a2505050565b806002548110610f28576040517f08c379a0000000000000000000000000000000000000000000000000000000008152600401610f1f9061161c565b60405180910390fd5b600160009054906101000a900473ffffffffffffffffffffffffffffffffffffffff1673ffffffffffffffffffffffffffffffffffffffff163373ffffffffffffffffffffffffffffffffffffffff1614610faf576040517f7bfa4b9f00000000000000000000000000000000000000000000000000000000815260040160405180910390fd5b60006003600084815260200190815260200160002090508060050160149054906101000a900460ff161561100f576040517fd02e774d00000000000000000000000000000000000000000000000000000000815260040160405180910390fd5b60018160050160146101000a81548160ff021916908315150217905550827fd2aa34a4fdbbc6dff6a3e56f46e0f3ae2a31d7785ff3487aa5c95c642acea5018260050160009054906101000a900473ffffffffffffffffffffffffffffffffffffffff16836004015460405161108692919061163c565b60405180910390a2505050565b600160009054906101000a900473ffffffffffffffffffffffffffffffffffffffff1681565b8060025481106110fe576040517f08c379a00000000000000000000000000000000000000000000000000000000081526004016110f59061161c565b60405180910390fd5b60006003600084815260200190815260200160002090508060050160149054906101000a900460ff1661115d576040517f6463738900000000000000000000000000000000000000000000000000000000815260040160405180910390fd5b8060050160009054906101000a900473ffffffffffffffffffffffffffffffffffffffff1673ffffffffffffffffffffffffffffffffffffffff163373ffffffffffffffffffffffffffffffffffffffff16146111e6576040517f760576b900000000000000000000000000000000000000000000000000000000815260040160405180910390fd5b8060010160009054906101000a900473ffffffffffffffffffffffffffffffffffffffff1673ffffffffffffffffffffffffffffffffffffffff166323b872dd303384600201546040518463ffffffff1660e01b815260040161124b93929190611665565b600060405180830381600087803b15801561126557600080fd5b505af1158015611279573d6000803e3d6000fd5b50505050827fec5f0dee1fc3c7beab746dbd5883eee3f1c9bc07fe02dd318c553c5243f52fea336040516112ad91906115a4565b60405180910390a2505050565b6002600054036112ff576040517f08c379a00000000000000000000000000000000000000000000000000000000081526004016112f690611782565b60405180910390fd5b6002600081905550565b6001600081905550565b600080fd5b6000819050919050565b61132b81611318565b811461133657600080fd5b50565b60008135905061134881611322565b92915050565b60006020828403121561136457611363611313565b5b600061137284828501611339565b91505092915050565b600073ffffffffffffffffffffffffffffffffffffffff82169050919050565b60006113a68261137b565b9050919050565b6113b68161139b565b81146113c157600080fd5b50565b6000813590506113d3816113ad565b92915050565b600080604083850312156113f0576113ef611313565b5b60006113fe85828601611339565b925050602061140f858286016113c4565b9150509250929050565b61142281611318565b82525050565b600060208201905061143d6000830184611419565b92915050565b61144c8161139b565b82525050565b60008115159050919050565b61146781611452565b82525050565b600060e082019050611482600083018a611443565b61148f6020830189611443565b61149c6040830188611419565b6114a96060830187611419565b6114b66080830186611419565b6114c360a0830185611443565b6114d060c083018461145e565b98975050505050505050565b600080600080608085870312156114f6576114f5611313565b5b6000611504878288016113c4565b945050602061151587828801611339565b935050604061152687828801611339565b925050606061153787828801611339565b91505092959194509250565b600060c0820190506115586000830189611443565b6115656020830188611419565b6115726040830187611419565b61157f6060830186611443565b61158c6080830185611419565b61159960a083018461145e565b979650505050505050565b60006020820190506115b96000830184611443565b92915050565b600082825260208201905092915050565b7f41756374696f6e20646f6573206e6f7420657869737400000000000000000000600082015250565b60006116066016836115bf565b9150611611826115d0565b602082019050919050565b60006020820190508181036000830152611635816115f9565b9050919050565b60006040820190506116516000830185611443565b61165e6020830184611419565b9392505050565b600060608201905061167a6000830186611443565b6116876020830185611443565b6116946040830184611419565b949350505050565b7f4e487b7100000000000000000000000000000000000000000000000000000000600052601160045260246000fd5b60006116d682611318565b91506116e183611318565b92508282019050808211156116f9576116f861169c565b5b92915050565b60006060820190506117146000830186611443565b6117216020830185611419565b61172e6040830184611419565b949350505050565b7f5265656e7472616e637947756172643a207265656e7472616e742063616c6c00600082015250565b600061176c601f836115bf565b915061177782611736565b602082019050919050565b6000602082019050818103600083015261179b8161175f565b905091905056fea264697066735822122044c4a85768e74dd437d1760f3b323e5ce6b6ba2f213a8671584a1c982c5745ed64736f6c634300081c0033",
  "linkReferences": {},
  "deployedLinkReferences": {}
}