{
  "_format": "hh-sol-artifact-1",
  "contractName": "BuddhaNFT",
  "sourceName": "contracts/BuddhaNFT.sol",
  "abi": [
    {
      "anonymous": false,
      "inputs": [
        {
          "indexed": true,
          "internalType": "address",
          "name": "owner",
          "type": "address"
        },
        {
          "indexed": true,
          "internalType": "address",
          "name": "approved",
          "type": "address"
        },
        {
          "indexed": true,
          "internalType": "uint256",
          "name": "tokenId",
          "type": "uint256"
        }
      ],
      "name": "Approval",
      "type": "event"
    },
    {
      "anonymous": false,
      "inputs": [
        {
          "indexed": true,
          "internalType": "address",
          "name": "owner",
          "type": "address"
        },
        {
          "indexed": true,
          "internalType": "address",
          "name": "operator",
          "type": "address"
        },
        {
          "indexed": false,
          "internalType": "bool",
          "name": "approved",
          "type": "bool"
        }
      ],
      "name": "ApprovalForAll",
      "type": "event"
    },
    {
      "anonymous": false,
      "inputs": [
        {
          "indexed": false,
          "internalType": "uint256",
          "name": "_fromTokenId",
          "type": "uint256"
        },
        {
          "indexed": false,
          "internalType": "uint256",
          "name": "_toTokenId",
          "type": "uint256"
        }
      ],
      "name": "BatchMetadataUpdate",
      "type": "event"
    },
    {
      "anonymous": false,
      "inputs": [
        {
          "indexed": false,
          "internalType": "uint8",
          "name": "version",
          "type": "uint8"
        }
      ],
      "name": "Initialized",
      "type": "event"
    },
    {
      "anonymous": false,
      "inputs": [
        {
          "indexed": false,
          "internalType": "uint256",
          "name": "_tokenId",
          "type": "uint256"
        }
      ],
      "name": "MetadataUpdate",
      "type": "event"
    },
    {
      "anonymous": false,
      "inputs": [
        {
          "indexed": true,
          "internalType": "address",
          "name": "previousOwner",
          "type": "address"
        },
        {
          "indexed": true,
          "internalType": "address",
          "name": "newOwner",
          "type": "address"
        }
      ],
      "name": "OwnershipTransferred",
      "type": "event"
    },
    {
      "anonymous": false,
      "inputs": [
        {
          "indexed": true,
          "internalType": "address",
          "name": "from",
          "type": "address"
        },
        {
          "indexed": true,
          "internalType": "address",
          "name": "to",
          "type": "address"
        },
        {
          "indexed": true,
          "internalType": "uint256",
          "name": "tokenId",
          "type": "uint256"
        }
      ],
      "name": "Transfer",
      "type": "event"
    },
    {
      "inputs": [
        {
          "internalType": "address",
          "name": "to",
          "type": "address"
        },
        {
          "internalType": "uint256",
          "name": "tokenId",
          "type": "uint256"
        }
      ],
      "name": "approve",
      "outputs": [],
      "stateMutability": "nonpayable",
      "type": "function"
    },
    {
      "inputs": [
        {
          "internalType": "address",
          "name": "owner",
          "type": "address"
        }
      ],
      "name": "balanceOf",
      "outputs": [
        {
          "internalType": "uint256",
          "name": "",
          "type": "uint256"
        }
      ],
      "stateMutability": "view",
      "type": "function"
    },
    {
      "inputs": [
        {
          "internalType": "uint256",
          "name": "tokenId",
          "type": "uint256"
        }
      ],
      "name": "getApproved",
      "outputs": [
        {
          "internalType": "address",
          "name": "",
          "type": "address"
        }
      ],
      "stateMutability": "view",
      "type": "function"
    },
    {
      "inputs": [],
      "name": "initialize",
      "outputs": [],
      "stateMutability": "nonpayable",
      "type": "function"
    },
    {
      "inputs": [
        {
          "internalType": "address",
          "name": "owner",
          "type": "address"
        },
        {
          "internalType": "address",
          "name": "operator",
          "type": "address"
        }
      ],
      "name": "isApprovedForAll",
      "outputs": [
        {
          "internalType": "bool",
          "name": "",
          "type": "bool"
        }
      ],
      "stateMutability": "view",
      "type": "function"
    },
    {
      "inputs": [
        {
          "internalType": "address",
          "name": "to",
          "type": "address"
        },
        {
          "internalType": "string",
          "name": "uri",
          "type": "string"
        },
        {
          "internalType": "address",
          "name": "royaltyReceiver",
          "type": "address"
        },
        {
          "internalType": "uint96",
          "name": "royaltyFee",
          "type": "uint96"
        }
      ],
      "name": "mintNFT",
      "outputs": [
        {
          "internalType": "uint256",
          "name": "",
          "type": "uint256"
        }
      ],
      "stateMutability": "nonpayable",
      "type": "function"
    },
    {
      "inputs": [],
      "name": "name",
      "outputs": [
        {
          "internalType": "string",
          "name": "",
          "type": "string"
        }
      ],
      "stateMutability": "view",
      "type": "function"
    },
    {
      "inputs": [],
      "name": "nextTokenId",
      "outputs": [
        {
          "internalType": "uint256",
          "name": "",
          "type": "uint256"
        }
      ],
      "stateMutability": "view",
      "type": "function"
    },
    {
      "inputs": [],
      "name": "owner",
      "outputs": [
        {
          "internalType": "address",
          "name": "",
          "type": "address"
        }
      ],
      "stateMutability": "view",
      "type": "function"
    },
    {
      "inputs": [
        {
          "internalType": "uint256",
          "name": "tokenId",
          "type": "uint256"
        }
      ],
      "name": "ownerOf",
      "outputs": [
        {
          "internalType": "address",
          "name": "",
          "type": "address"
        }
      ],
      "stateMutability": "view",
      "type": "function"
    },
    {
      "inputs": [],
      "name": "renounceOwnership",
      "outputs": [],
      "stateMutability": "nonpayable",
      "type": "function"
    },
    {
      "inputs": [
        {
          "internalType": "uint256",
          "name": "tokenId",
          "type": "uint256"
        },
        {
          "internalType": "uint256",
          "name": "salePrice",
          "type": "uint256"
        }
      ],
      "name": "royaltyInfo",
      "outputs": [
        {
          "internalType": "address",
          "name": "",
          "type": "address"
        },
        {
          "internalType": "uint256",
          "name": "",
          "type": "uint256"
        }
      ],
      "stateMutability": "view",
      "type": "function"
    },
    {
      "inputs": [
        {
          "internalType": "address",
          "name": "from",
          "type": "address"
        },
        {
          "internalType": "address",
          "name": "to",
          "type": "address"
        },
        {
          "internalType": "uint256",
          "name": "tokenId",
          "type": "uint256"
        }
      ],
      "name": "safeTransferFrom",
      "outputs": [],
      "stateMutability": "nonpayable",
      "type": "function"
    },
    {
      "inputs": [
        {
          "internalType": "address",
          "name": "from",
          "type": "address"
        },
        {
          "internalType": "address",
          "name": "to",
          "type": "address"
        },
        {
          "internalType": "uint256",
          "name": "tokenId",
          "type": "uint256"
        },
        {
          "internalType": "bytes",
          "name": "data",
          "type": "bytes"
        }
      ],
      "name": "safeTransferFrom",
      "outputs": [],
      "stateMutability": "nonpayable",
      "type": "function"
    },
    {
      "inputs": [
        {
          "internalType": "address",
          "name": "operator",
          "type": "address"
        },
        {
          "internalType": "bool",
          "name": "approved",
          "type": "bool"
        }
      ],
      "name": "setApprovalForAll",
      "outputs": [],
      "stateMutability": "nonpayable",
      "type": "function"
    },
    {
      "inputs": [
        {
          "internalType": "bytes4",
          "name": "interfaceId",
          "type": "bytes4"
        }
      ],
      "name": "supportsInterface",
      "outputs": [
        {
          "internalType": "bool",
          "name": "",
          "type": "bool"
        }
      ],
      "stateMutability": "view",
      "type": "function"
    },
    {
      "inputs": [],
      "name": "symbol",
      "outputs": [
        {
          "internalType": "string",
          "name": "",
          "type": "string"
        }
      ],
      "stateMutability": "view",
      "type": "function"
    },
    {
      "inputs": [
        {
          "internalType": "uint256",
          "name": "tokenId",
          "type": "uint256"
        }
      ],
      "name": "tokenURI",
      "outputs": [
        {
          "internalType": "string",
          "name": "",
          "type": "string"
        }
      ],
      "stateMutability": "view",
      "type": "function"
    },
    {
      "inputs": [
        {
          "internalType": "address",
          "name": "owner",
          "type": "address"
        }
      ],
      "name": "tokensOfOwner",
      "outputs": [
        {
          "internalType": "uint256[]",
          "name": "",
          "type": "uint256[]"
        }
      ],
      "stateMutability": "view",
      "type": "function"
    },
    {
      "inputs": [
        {
          "internalType": "address",
          "name": "from",
          "type": "address"
        },
        {
          "internalType": "address",
          "name": "to",
          "type": "address"
        },
        {
          "internalType": "uint256",
          "name": "tokenId",
          "type": "uint256"
        }
      ],
      "name": "transferFrom",
      "outputs": [],
      "stateMutability": "nonpayable",
      "type": "function"
    },
    {
      "inputs": [
        {
          "internalType": "address",
          "name": "newOwner",
          "type": "address"
        }
      ],
      "name": "transferOwnership",
      "outputs": [],
      "stateMutability": "nonpayable",
      "type": "function"
    }
  ],
  "bytecode": "0x6080604052348015600f57600080fd5b50613d7c8061001f6000396000f3fe608060405234801561001057600080fd5b50600436106101375760003560e01c806375794a3c116100b8578063a22cb4651161007c578063a22cb4651461033d578063a293161014610359578063b88d4fde14610389578063c87b56dd146103a5578063e985e9c5146103d5578063f2fde38b1461040557610137565b806375794a3c146102a95780638129fc1c146102c75780638462151c146102d15780638da5cb5b1461030157806395d89b411461031f57610137565b80632a55205a116100ff5780632a55205a146101f257806342842e0e146102235780636352211e1461023f57806370a082311461026f578063715018a61461029f57610137565b806301ffc9a71461013c57806306fdde031461016c578063081812fc1461018a578063095ea7b3146101ba57806323b872dd146101d6575b600080fd5b6101566004803603810190610151919061261b565b610421565b6040516101639190612663565b60405180910390f35b610174610433565b604051610181919061270e565b60405180910390f35b6101a4600480360381019061019f9190612766565b6104c5565b6040516101b191906127d4565b60405180910390f35b6101d460048036038101906101cf919061281b565b61050b565b005b6101f060048036038101906101eb919061285b565b610622565b005b61020c600480360381019061020791906128ae565b610682565b60405161021a9291906128fd565b60405180910390f35b61023d6004803603810190610238919061285b565b61086c565b005b61025960048036038101906102549190612766565b61088c565b60405161026691906127d4565b60405180910390f35b61028960048036038101906102849190612926565b610912565b6040516102969190612953565b60405180910390f35b6102a76109c9565b005b6102b16109dd565b6040516102be9190612953565b60405180910390f35b6102cf6109e4565b005b6102eb60048036038101906102e69190612926565b610ba6565b6040516102f89190612a2c565b60405180910390f35b610309610cab565b60405161031691906127d4565b60405180910390f35b610327610cd5565b604051610334919061270e565b60405180910390f35b61035760048036038101906103529190612a7a565b610d67565b005b610373600480360381019061036e9190612c33565b610d7d565b6040516103809190612953565b60405180910390f35b6103a3600480360381019061039e9190612d57565b610dc5565b005b6103bf60048036038101906103ba9190612766565b610e27565b6040516103cc919061270e565b60405180910390f35b6103ef60048036038101906103ea9190612dda565b610e39565b6040516103fc9190612663565b60405180910390f35b61041f600480360381019061041a9190612926565b610ecd565b005b600061042c82610f50565b9050919050565b60606065805461044290612e49565b80601f016020809104026020016040519081016040528092919081815260200182805461046e90612e49565b80156104bb5780601f10610490576101008083540402835291602001916104bb565b820191906000526020600020905b81548152906001019060200180831161049e57829003601f168201915b5050505050905090565b60006104d082610fca565b6069600083815260200190815260200160002060009054906101000a900473ffffffffffffffffffffffffffffffffffffffff169050919050565b60006105168261088c565b90508073ffffffffffffffffffffffffffffffffffffffff168373ffffffffffffffffffffffffffffffffffffffff1603610586576040517f08c379a000000000000000000000000000000000000000000000000000000000815260040161057d90612eec565b60405180910390fd5b8073ffffffffffffffffffffffffffffffffffffffff166105a5611015565b73ffffffffffffffffffffffffffffffffffffffff1614806105d457506105d3816105ce611015565b610e39565b5b610613576040517f08c379a000000000000000000000000000000000000000000000000000000000815260040161060a90612f7e565b60405180910390fd5b61061d838361101d565b505050565b61063361062d611015565b826110d6565b610672576040517f08c379a000000000000000000000000000000000000000000000000000000000815260040161066990613010565b60405180910390fd5b61067d83838361116b565b505050565b600080600060ca60008681526020019081526020016000206040518060400160405290816000820160009054906101000a900473ffffffffffffffffffffffffffffffffffffffff1673ffffffffffffffffffffffffffffffffffffffff1673ffffffffffffffffffffffffffffffffffffffff1681526020016000820160149054906101000a90046bffffffffffffffffffffffff166bffffffffffffffffffffffff166bffffffffffffffffffffffff16815250509050600073ffffffffffffffffffffffffffffffffffffffff16816000015173ffffffffffffffffffffffffffffffffffffffff16036108175760c96040518060400160405290816000820160009054906101000a900473ffffffffffffffffffffffffffffffffffffffff1673ffffffffffffffffffffffffffffffffffffffff1673ffffffffffffffffffffffffffffffffffffffff1681526020016000820160149054906101000a90046bffffffffffffffffffffffff166bffffffffffffffffffffffff166bffffffffffffffffffffffff168152505090505b6000610821611464565b6bffffffffffffffffffffffff1682602001516bffffffffffffffffffffffff168661084d919061305f565b61085791906130d0565b90508160000151819350935050509250929050565b61088783838360405180602001604052806000815250610dc5565b505050565b6000806108988361146e565b9050600073ffffffffffffffffffffffffffffffffffffffff168173ffffffffffffffffffffffffffffffffffffffff1603610909576040517f08c379a00000000000000000000000000000000000000000000000000000000081526004016109009061314d565b60405180910390fd5b80915050919050565b60008073ffffffffffffffffffffffffffffffffffffffff168273ffffffffffffffffffffffffffffffffffffffff1603610982576040517f08c379a0000000000000000000000000000000000000000000000000000000008152600401610979906131df565b60405180910390fd5b606860008373ffffffffffffffffffffffffffffffffffffffff1673ffffffffffffffffffffffffffffffffffffffff168152602001908152602001600020549050919050565b6109d16114ab565b6109db6000611529565b565b61012e5481565b60008060019054906101000a900460ff16159050808015610a155750600160008054906101000a900460ff1660ff16105b80610a425750610a24306115ef565b158015610a415750600160008054906101000a900460ff1660ff16145b5b610a81576040517f08c379a0000000000000000000000000000000000000000000000000000000008152600401610a7890613271565b60405180910390fd5b60016000806101000a81548160ff021916908360ff1602179055508015610abe576001600060016101000a81548160ff0219169083151502179055505b610b326040518060400160405280600981526020017f4275646468614e465400000000000000000000000000000000000000000000008152506040518060400160405280600481526020017f42414d5500000000000000000000000000000000000000000000000000000000815250611612565b610b3a61166f565b610b426116c0565b610b4a611711565b8015610ba35760008060016101000a81548160ff0219169083151502179055507f7f26b83ff96e1f2b6a682f133852f6798a09c465da95921460cefb38474024986001604051610b9a91906132e3565b60405180910390a15b50565b60606000610bb383610912565b905060008167ffffffffffffffff811115610bd157610bd0612ac4565b5b604051908082528060200260200182016040528015610bff5781602001602082028036833780820191505090505b5090506000805b610c1161012d61176a565b811015610c9f57610c2181611778565b8015610c6057508573ffffffffffffffffffffffffffffffffffffffff16610c488261088c565b73ffffffffffffffffffffffffffffffffffffffff16145b15610c925780838380610c72906132fe565b945081518110610c8557610c84613346565b5b6020026020010181815250505b8080600101915050610c06565b50819350505050919050565b600060fb60009054906101000a900473ffffffffffffffffffffffffffffffffffffffff16905090565b606060668054610ce490612e49565b80601f0160208091040260200160405190810160405280929190818152602001828054610d1090612e49565b8015610d5d5780601f10610d3257610100808354040283529160200191610d5d565b820191906000526020600020905b815481529060010190602001808311610d4057829003601f168201915b5050505050905090565b610d79610d72611015565b83836117b9565b5050565b60008061012e6000815480929190610d94906132fe565b919050559050610da48682611925565b610dae8186611b42565b610db9818585611be6565b80915050949350505050565b610dd6610dd0611015565b836110d6565b610e15576040517f08c379a0000000000000000000000000000000000000000000000000000000008152600401610e0c90613010565b60405180910390fd5b610e2184848484611d8d565b50505050565b6060610e3282611de9565b9050919050565b6000606a60008473ffffffffffffffffffffffffffffffffffffffff1673ffffffffffffffffffffffffffffffffffffffff16815260200190815260200160002060008373ffffffffffffffffffffffffffffffffffffffff1673ffffffffffffffffffffffffffffffffffffffff16815260200190815260200160002060009054906101000a900460ff16905092915050565b610ed56114ab565b600073ffffffffffffffffffffffffffffffffffffffff168173ffffffffffffffffffffffffffffffffffffffff1603610f44576040517f08c379a0000000000000000000000000000000000000000000000000000000008152600401610f3b906133e7565b60405180910390fd5b610f4d81611529565b50565b60007f2a55205a000000000000000000000000000000000000000000000000000000007bffffffffffffffffffffffffffffffffffffffffffffffffffffffff1916827bffffffffffffffffffffffffffffffffffffffffffffffffffffffff19161480610fc35750610fc282611efb565b5b9050919050565b610fd381611778565b611012576040517f08c379a00000000000000000000000000000000000000000000000000000000081526004016110099061314d565b60405180910390fd5b50565b600033905090565b816069600083815260200190815260200160002060006101000a81548173ffffffffffffffffffffffffffffffffffffffff021916908373ffffffffffffffffffffffffffffffffffffffff160217905550808273ffffffffffffffffffffffffffffffffffffffff166110908361088c565b73ffffffffffffffffffffffffffffffffffffffff167f8c5be1e5ebec7d5bd14f71427d1e84f3dd0314c0f7b2291e5b200ac8c7c3b92560405160405180910390a45050565b6000806110e28361088c565b90508073ffffffffffffffffffffffffffffffffffffffff168473ffffffffffffffffffffffffffffffffffffffff16148061112457506111238185610e39565b5b8061116257508373ffffffffffffffffffffffffffffffffffffffff1661114a846104c5565b73ffffffffffffffffffffffffffffffffffffffff16145b91505092915050565b8273ffffffffffffffffffffffffffffffffffffffff1661118b8261088c565b73ffffffffffffffffffffffffffffffffffffffff16146111e1576040517f08c379a00000000000000000000000000000000000000000000000000000000081526004016111d890613479565b60405180910390fd5b600073ffffffffffffffffffffffffffffffffffffffff168273ffffffffffffffffffffffffffffffffffffffff1603611250576040517f08c379a00000000000000000000000000000000000000000000000000000000081526004016112479061350b565b60405180910390fd5b61125d8383836001611f5c565b8273ffffffffffffffffffffffffffffffffffffffff1661127d8261088c565b73ffffffffffffffffffffffffffffffffffffffff16146112d3576040517f08c379a00000000000000000000000000000000000000000000000000000000081526004016112ca90613479565b60405180910390fd5b6069600082815260200190815260200160002060006101000a81549073ffffffffffffffffffffffffffffffffffffffff02191690556001606860008573ffffffffffffffffffffffffffffffffffffffff1673ffffffffffffffffffffffffffffffffffffffff168152602001908152602001600020600082825403925050819055506001606860008473ffffffffffffffffffffffffffffffffffffffff1673ffffffffffffffffffffffffffffffffffffffff16815260200190815260200160002060008282540192505081905550816067600083815260200190815260200160002060006101000a81548173ffffffffffffffffffffffffffffffffffffffff021916908373ffffffffffffffffffffffffffffffffffffffff160217905550808273ffffffffffffffffffffffffffffffffffffffff168473ffffffffffffffffffffffffffffffffffffffff167fddf252ad1be2c89b69c2b068fc378daa952ba7f163c4a11628f55a4df523b3ef60405160405180910390a461145f8383836001611f62565b505050565b6000612710905090565b60006067600083815260200190815260200160002060009054906101000a900473ffffffffffffffffffffffffffffffffffffffff169050919050565b6114b3611015565b73ffffffffffffffffffffffffffffffffffffffff166114d1610cab565b73ffffffffffffffffffffffffffffffffffffffff1614611527576040517f08c379a000000000000000000000000000000000000000000000000000000000815260040161151e90613577565b60405180910390fd5b565b600060fb60009054906101000a900473ffffffffffffffffffffffffffffffffffffffff1690508160fb60006101000a81548173ffffffffffffffffffffffffffffffffffffffff021916908373ffffffffffffffffffffffffffffffffffffffff1602179055508173ffffffffffffffffffffffffffffffffffffffff168173ffffffffffffffffffffffffffffffffffffffff167f8be0079c531659141344cd1fd0a4f28419497f9722a3daafe3b4186f6b6457e060405160405180910390a35050565b6000808273ffffffffffffffffffffffffffffffffffffffff163b119050919050565b600060019054906101000a900460ff16611661576040517f08c379a000000000000000000000000000000000000000000000000000000000815260040161165890613609565b60405180910390fd5b61166b8282611f68565b5050565b600060019054906101000a900460ff166116be576040517f08c379a00000000000000000000000000000000000000000000000000000000081526004016116b590613609565b60405180910390fd5b565b600060019054906101000a900460ff1661170f576040517f08c379a000000000000000000000000000000000000000000000000000000000815260040161170690613609565b60405180910390fd5b565b600060019054906101000a900460ff16611760576040517f08c379a000000000000000000000000000000000000000000000000000000000815260040161175790613609565b60405180910390fd5b611768611fdb565b565b600081600001549050919050565b60008073ffffffffffffffffffffffffffffffffffffffff1661179a8361146e565b73ffffffffffffffffffffffffffffffffffffffff1614159050919050565b8173ffffffffffffffffffffffffffffffffffffffff168373ffffffffffffffffffffffffffffffffffffffff1603611827576040517f08c379a000000000000000000000000000000000000000000000000000000000815260040161181e90613675565b60405180910390fd5b80606a60008573ffffffffffffffffffffffffffffffffffffffff1673ffffffffffffffffffffffffffffffffffffffff16815260200190815260200160002060008473ffffffffffffffffffffffffffffffffffffffff1673ffffffffffffffffffffffffffffffffffffffff16815260200190815260200160002060006101000a81548160ff0219169083151502179055508173ffffffffffffffffffffffffffffffffffffffff168373ffffffffffffffffffffffffffffffffffffffff167f17307eab39ab6107e8899845ad3d59bd9653f200f220920489ca2b5937696c31836040516119189190612663565b60405180910390a3505050565b600073ffffffffffffffffffffffffffffffffffffffff168273ffffffffffffffffffffffffffffffffffffffff1603611994576040517f08c379a000000000000000000000000000000000000000000000000000000000815260040161198b906136e1565b60405180910390fd5b61199d81611778565b156119dd576040517f08c379a00000000000000000000000000000000000000000000000000000000081526004016119d49061374d565b60405180910390fd5b6119eb600083836001611f5c565b6119f481611778565b15611a34576040517f08c379a0000000000000000000000000000000000000000000000000000000008152600401611a2b9061374d565b60405180910390fd5b6001606860008473ffffffffffffffffffffffffffffffffffffffff1673ffffffffffffffffffffffffffffffffffffffff16815260200190815260200160002060008282540192505081905550816067600083815260200190815260200160002060006101000a81548173ffffffffffffffffffffffffffffffffffffffff021916908373ffffffffffffffffffffffffffffffffffffffff160217905550808273ffffffffffffffffffffffffffffffffffffffff16600073ffffffffffffffffffffffffffffffffffffffff167fddf252ad1be2c89b69c2b068fc378daa952ba7f163c4a11628f55a4df523b3ef60405160405180910390a4611b3e600083836001611f62565b5050565b611b4b82611778565b611b8a576040517f08c379a0000000000000000000000000000000000000000000000000000000008152600401611b81906137df565b60405180910390fd5b80609760008481526020019081526020016000209081611baa91906139a1565b507ff8e1a15aba9398e019f0b49df1a4fde98ee17ae345cb5f6b5e2c27f5033e8ce782604051611bda9190612953565b60405180910390a15050565b611bee611464565b6bffffffffffffffffffffffff16816bffffffffffffffffffffffff161115611c4c576040517f08c379a0000000000000000000000000000000000000000000000000000000008152600401611c4390613ae5565b60405180910390fd5b600073ffffffffffffffffffffffffffffffffffffffff168273ffffffffffffffffffffffffffffffffffffffff1603611cbb576040517f08c379a0000000000000000000000000000000000000000000000000000000008152600401611cb290613b51565b60405180910390fd5b60405180604001604052808373ffffffffffffffffffffffffffffffffffffffff168152602001826bffffffffffffffffffffffff1681525060ca600085815260200190815260200160002060008201518160000160006101000a81548173ffffffffffffffffffffffffffffffffffffffff021916908373ffffffffffffffffffffffffffffffffffffffff16021790555060208201518160000160146101000a8154816bffffffffffffffffffffffff02191690836bffffffffffffffffffffffff160217905550905050505050565b611d9884848461116b565b611da48484848461203c565b611de3576040517f08c379a0000000000000000000000000000000000000000000000000000000008152600401611dda90613be3565b60405180910390fd5b50505050565b6060611df482610fca565b6000609760008481526020019081526020016000208054611e1490612e49565b80601f0160208091040260200160405190810160405280929190818152602001828054611e4090612e49565b8015611e8d5780601f10611e6257610100808354040283529160200191611e8d565b820191906000526020600020905b815481529060010190602001808311611e7057829003601f168201915b505050505090506000611e9e6121c3565b90506000815103611eb3578192505050611ef6565b600082511115611ee8578082604051602001611ed0929190613c3f565b60405160208183030381529060405292505050611ef6565b611ef1846121da565b925050505b919050565b6000634906490660e01b7bffffffffffffffffffffffffffffffffffffffffffffffffffffffff1916827bffffffffffffffffffffffffffffffffffffffffffffffffffffffff19161480611f555750611f5482612242565b5b9050919050565b50505050565b50505050565b600060019054906101000a900460ff16611fb7576040517f08c379a0000000000000000000000000000000000000000000000000000000008152600401611fae90613609565b60405180910390fd5b8160659081611fc691906139a1565b508060669081611fd691906139a1565b505050565b600060019054906101000a900460ff1661202a576040517f08c379a000000000000000000000000000000000000000000000000000000000815260040161202190613609565b60405180910390fd5b61203a612035611015565b611529565b565b600061205d8473ffffffffffffffffffffffffffffffffffffffff166115ef565b156121b6578373ffffffffffffffffffffffffffffffffffffffff1663150b7a02612086611015565b8786866040518563ffffffff1660e01b81526004016120a89493929190613cb8565b6020604051808303816000875af19250505080156120e457506040513d601f19601f820116820180604052508101906120e19190613d19565b60015b612166573d8060008114612114576040519150601f19603f3d011682016040523d82523d6000602084013e612119565b606091505b50600081510361215e576040517f08c379a000000000000000000000000000000000000000000000000000000000815260040161215590613be3565b60405180910390fd5b805181602001fd5b63150b7a0260e01b7bffffffffffffffffffffffffffffffffffffffffffffffffffffffff1916817bffffffffffffffffffffffffffffffffffffffffffffffffffffffff1916149150506121bb565b600190505b949350505050565b606060405180602001604052806000815250905090565b60606121e582610fca565b60006121ef6121c3565b9050600081511161220f576040518060200160405280600081525061223a565b8061221984612324565b60405160200161222a929190613c3f565b6040516020818303038152906040525b915050919050565b60007f80ac58cd000000000000000000000000000000000000000000000000000000007bffffffffffffffffffffffffffffffffffffffffffffffffffffffff1916827bffffffffffffffffffffffffffffffffffffffffffffffffffffffff1916148061230d57507f5b5e139f000000000000000000000000000000000000000000000000000000007bffffffffffffffffffffffffffffffffffffffffffffffffffffffff1916827bffffffffffffffffffffffffffffffffffffffffffffffffffffffff1916145b8061231d575061231c826123f2565b5b9050919050565b6060600060016123338461245c565b01905060008167ffffffffffffffff81111561235257612351612ac4565b5b6040519080825280601f01601f1916602001820160405280156123845781602001600182028036833780820191505090505b509050600082602001820190505b6001156123e7578080600190039150507f3031323334353637383961626364656600000000000000000000000000000000600a86061a8153600a85816123db576123da6130a1565b5b04945060008503612392575b819350505050919050565b60007f01ffc9a7000000000000000000000000000000000000000000000000000000007bffffffffffffffffffffffffffffffffffffffffffffffffffffffff1916827bffffffffffffffffffffffffffffffffffffffffffffffffffffffff1916149050919050565b600080600090507a184f03e93ff9f4daa797ed6e38ed64bf6a1f01000000000000000083106124ba577a184f03e93ff9f4daa797ed6e38ed64bf6a1f01000000000000000083816124b0576124af6130a1565b5b0492506040810190505b6d04ee2d6d415b85acef810000000083106124f7576d04ee2d6d415b85acef810000000083816124ed576124ec6130a1565b5b0492506020810190505b662386f26fc10000831061252657662386f26fc10000838161251c5761251b6130a1565b5b0492506010810190505b6305f5e100831061254f576305f5e1008381612545576125446130a1565b5b0492506008810190505b612710831061257457612710838161256a576125696130a1565b5b0492506004810190505b60648310612597576064838161258d5761258c6130a1565b5b0492506002810190505b600a83106125a6576001810190505b80915050919050565b6000604051905090565b600080fd5b600080fd5b60007fffffffff0000000000000000000000000000000000000000000000000000000082169050919050565b6125f8816125c3565b811461260357600080fd5b50565b600081359050612615816125ef565b92915050565b600060208284031215612631576126306125b9565b5b600061263f84828501612606565b91505092915050565b60008115159050919050565b61265d81612648565b82525050565b60006020820190506126786000830184612654565b92915050565b600081519050919050565b600082825260208201905092915050565b60005b838110156126b857808201518184015260208101905061269d565b60008484015250505050565b6000601f19601f8301169050919050565b60006126e08261267e565b6126ea8185612689565b93506126fa81856020860161269a565b612703816126c4565b840191505092915050565b6000602082019050818103600083015261272881846126d5565b905092915050565b6000819050919050565b61274381612730565b811461274e57600080fd5b50565b6000813590506127608161273a565b92915050565b60006020828403121561277c5761277b6125b9565b5b600061278a84828501612751565b91505092915050565b600073ffffffffffffffffffffffffffffffffffffffff82169050919050565b60006127be82612793565b9050919050565b6127ce816127b3565b82525050565b60006020820190506127e960008301846127c5565b92915050565b6127f8816127b3565b811461280357600080fd5b50565b600081359050612815816127ef565b92915050565b60008060408385031215612832576128316125b9565b5b600061284085828601612806565b925050602061285185828601612751565b9150509250929050565b600080600060608486031215612874576128736125b9565b5b600061288286828701612806565b935050602061289386828701612806565b92505060406128a486828701612751565b9150509250925092565b600080604083850312156128c5576128c46125b9565b5b60006128d385828601612751565b92505060206128e485828601612751565b9150509250929050565b6128f781612730565b82525050565b600060408201905061291260008301856127c5565b61291f60208301846128ee565b9392505050565b60006020828403121561293c5761293b6125b9565b5b600061294a84828501612806565b91505092915050565b600060208201905061296860008301846128ee565b92915050565b600081519050919050565b600082825260208201905092915050565b6000819050602082019050919050565b6129a381612730565b82525050565b60006129b5838361299a565b60208301905092915050565b6000602082019050919050565b60006129d98261296e565b6129e38185612979565b93506129ee8361298a565b8060005b83811015612a1f578151612a0688826129a9565b9750612a11836129c1565b9250506001810190506129f2565b5085935050505092915050565b60006020820190508181036000830152612a4681846129ce565b905092915050565b612a5781612648565b8114612a6257600080fd5b50565b600081359050612a7481612a4e565b92915050565b60008060408385031215612a9157612a906125b9565b5b6000612a9f85828601612806565b9250506020612ab085828601612a65565b9150509250929050565b600080fd5b600080fd5b7f4e487b7100000000000000000000000000000000000000000000000000000000600052604160045260246000fd5b612afc826126c4565b810181811067ffffffffffffffff82111715612b1b57612b1a612ac4565b5b80604052505050565b6000612b2e6125af565b9050612b3a8282612af3565b919050565b600067ffffffffffffffff821115612b5a57612b59612ac4565b5b612b63826126c4565b9050602081019050919050565b82818337600083830152505050565b6000612b92612b8d84612b3f565b612b24565b905082815260208101848484011115612bae57612bad612abf565b5b612bb9848285612b70565b509392505050565b600082601f830112612bd657612bd5612aba565b5b8135612be6848260208601612b7f565b91505092915050565b60006bffffffffffffffffffffffff82169050919050565b612c1081612bef565b8114612c1b57600080fd5b50565b600081359050612c2d81612c07565b92915050565b60008060008060808587031215612c4d57612c4c6125b9565b5b6000612c5b87828801612806565b945050602085013567ffffffffffffffff811115612c7c57612c7b6125be565b5b612c8887828801612bc1565b9350506040612c9987828801612806565b9250506060612caa87828801612c1e565b91505092959194509250565b600067ffffffffffffffff821115612cd157612cd0612ac4565b5b612cda826126c4565b9050602081019050919050565b6000612cfa612cf584612cb6565b612b24565b905082815260208101848484011115612d1657612d15612abf565b5b612d21848285612b70565b509392505050565b600082601f830112612d3e57612d3d612aba565b5b8135612d4e848260208601612ce7565b91505092915050565b60008060008060808587031215612d7157612d706125b9565b5b6000612d7f87828801612806565b9450506020612d9087828801612806565b9350506040612da187828801612751565b925050606085013567ffffffffffffffff811115612dc257612dc16125be565b5b612dce87828801612d29565b91505092959194509250565b60008060408385031215612df157612df06125b9565b5b6000612dff85828601612806565b9250506020612e1085828601612806565b9150509250929050565b7f4e487b7100000000000000000000000000000000000000000000000000000000600052602260045260246000fd5b60006002820490506001821680612e6157607f821691505b602082108103612e7457612e73612e1a565b5b50919050565b7f4552433732313a20617070726f76616c20746f2063757272656e74206f776e6560008201527f7200000000000000000000000000000000000000000000000000000000000000602082015250565b6000612ed6602183612689565b9150612ee182612e7a565b604082019050919050565b60006020820190508181036000830152612f0581612ec9565b9050919050565b7f4552433732313a20617070726f76652063616c6c6572206973206e6f7420746f60008201527f6b656e206f776e6572206f7220617070726f76656420666f7220616c6c000000602082015250565b6000612f68603d83612689565b9150612f7382612f0c565b604082019050919050565b60006020820190508181036000830152612f9781612f5b565b9050919050565b7f4552433732313a2063616c6c6572206973206e6f7420746f6b656e206f776e6560008201527f72206f7220617070726f76656400000000000000000000000000000000000000602082015250565b6000612ffa602d83612689565b915061300582612f9e565b604082019050919050565b6000602082019050818103600083015261302981612fed565b9050919050565b7f4e487b7100000000000000000000000000000000000000000000000000000000600052601160045260246000fd5b600061306a82612730565b915061307583612730565b925082820261308381612730565b9150828204841483151761309a57613099613030565b5b5092915050565b7f4e487b7100000000000000000000000000000000000000000000000000000000600052601260045260246000fd5b60006130db82612730565b91506130e683612730565b9250826130f6576130f56130a1565b5b828204905092915050565b7f4552433732313a20696e76616c696420746f6b656e2049440000000000000000600082015250565b6000613137601883612689565b915061314282613101565b602082019050919050565b600060208201905081810360008301526131668161312a565b9050919050565b7f4552433732313a2061646472657373207a65726f206973206e6f74206120766160008201527f6c6964206f776e65720000000000000000000000000000000000000000000000602082015250565b60006131c9602983612689565b91506131d48261316d565b604082019050919050565b600060208201905081810360008301526131f8816131bc565b9050919050565b7f496e697469616c697a61626c653a20636f6e747261637420697320616c72656160008201527f647920696e697469616c697a6564000000000000000000000000000000000000602082015250565b600061325b602e83612689565b9150613266826131ff565b604082019050919050565b6000602082019050818103600083015261328a8161324e565b9050919050565b6000819050919050565b600060ff82169050919050565b6000819050919050565b60006132cd6132c86132c384613291565b6132a8565b61329b565b9050919050565b6132dd816132b2565b82525050565b60006020820190506132f860008301846132d4565b92915050565b600061330982612730565b91507fffffffffffffffffffffffffffffffffffffffffffffffffffffffffffffffff820361333b5761333a613030565b5b600182019050919050565b7f4e487b7100000000000000000000000000000000000000000000000000000000600052603260045260246000fd5b7f4f776e61626c653a206e6577206f776e657220697320746865207a65726f206160008201527f6464726573730000000000000000000000000000000000000000000000000000602082015250565b60006133d1602683612689565b91506133dc82613375565b604082019050919050565b60006020820190508181036000830152613400816133c4565b9050919050565b7f4552433732313a207472616e736665722066726f6d20696e636f72726563742060008201527f6f776e6572000000000000000000000000000000000000000000000000000000602082015250565b6000613463602583612689565b915061346e82613407565b604082019050919050565b6000602082019050818103600083015261349281613456565b9050919050565b7f4552433732313a207472616e7366657220746f20746865207a65726f2061646460008201527f7265737300000000000000000000000000000000000000000000000000000000602082015250565b60006134f5602483612689565b915061350082613499565b604082019050919050565b60006020820190508181036000830152613524816134e8565b9050919050565b7f4f776e61626c653a2063616c6c6572206973206e6f7420746865206f776e6572600082015250565b6000613561602083612689565b915061356c8261352b565b602082019050919050565b6000602082019050818103600083015261359081613554565b9050919050565b7f496e697469616c697a61626c653a20636f6e7472616374206973206e6f74206960008201527f6e697469616c697a696e67000000000000000000000000000000000000000000602082015250565b60006135f3602b83612689565b91506135fe82613597565b604082019050919050565b60006020820190508181036000830152613622816135e6565b9050919050565b7f4552433732313a20617070726f766520746f2063616c6c657200000000000000600082015250565b600061365f601983612689565b915061366a82613629565b602082019050919050565b6000602082019050818103600083015261368e81613652565b9050919050565b7f4552433732313a206d696e7420746f20746865207a65726f2061646472657373600082015250565b60006136cb602083612689565b91506136d682613695565b602082019050919050565b600060208201905081810360008301526136fa816136be565b9050919050565b7f4552433732313a20746f6b656e20616c7265616479206d696e74656400000000600082015250565b6000613737601c83612689565b915061374282613701565b602082019050919050565b600060208201905081810360008301526137668161372a565b9050919050565b7f45524337323155524953746f726167653a2055524920736574206f66206e6f6e60008201527f6578697374656e7420746f6b656e000000000000000000000000000000000000602082015250565b60006137c9602e83612689565b91506137d48261376d565b604082019050919050565b600060208201905081810360008301526137f8816137bc565b9050919050565b60008190508160005260206000209050919050565b60006020601f8301049050919050565b600082821b905092915050565b6000600883026138617fffffffffffffffffffffffffffffffffffffffffffffffffffffffffffffffff82613824565b61386b8683613824565b95508019841693508086168417925050509392505050565b600061389e61389961389484612730565b6132a8565b612730565b9050919050565b6000819050919050565b6138b883613883565b6138cc6138c4826138a5565b848454613831565b825550505050565b600090565b6138e16138d4565b6138ec8184846138af565b505050565b5b81811015613910576139056000826138d9565b6001810190506138f2565b5050565b601f82111561395557613926816137ff565b61392f84613814565b8101602085101561393e578190505b61395261394a85613814565b8301826138f1565b50505b505050565b600082821c905092915050565b60006139786000198460080261395a565b1980831691505092915050565b60006139918383613967565b9150826002028217905092915050565b6139aa8261267e565b67ffffffffffffffff8111156139c3576139c2612ac4565b5b6139cd8254612e49565b6139d8828285613914565b600060209050601f831160018114613a0b57600084156139f9578287015190505b613a038582613985565b865550613a6b565b601f198416613a19866137ff565b60005b82811015613a4157848901518255600182019150602085019450602081019050613a1c565b86831015613a5e5784890151613a5a601f891682613967565b8355505b6001600288020188555050505b505050505050565b7f455243323938313a20726f79616c7479206665652077696c6c2065786365656460008201527f2073616c65507269636500000000000000000000000000000000000000000000602082015250565b6000613acf602a83612689565b9150613ada82613a73565b604082019050919050565b60006020820190508181036000830152613afe81613ac2565b9050919050565b7f455243323938313a20496e76616c696420706172616d65746572730000000000600082015250565b6000613b3b601b83612689565b9150613b4682613b05565b602082019050919050565b60006020820190508181036000830152613b6a81613b2e565b9050919050565b7f4552433732313a207472616e7366657220746f206e6f6e20455243373231526560008201527f63656976657220696d706c656d656e7465720000000000000000000000000000602082015250565b6000613bcd603283612689565b9150613bd882613b71565b604082019050919050565b60006020820190508181036000830152613bfc81613bc0565b9050919050565b600081905092915050565b6000613c198261267e565b613c238185613c03565b9350613c3381856020860161269a565b80840191505092915050565b6000613c4b8285613c0e565b9150613c578284613c0e565b91508190509392505050565b600081519050919050565b600082825260208201905092915050565b6000613c8a82613c63565b613c948185613c6e565b9350613ca481856020860161269a565b613cad816126c4565b840191505092915050565b6000608082019050613ccd60008301876127c5565b613cda60208301866127c5565b613ce760408301856128ee565b8181036060830152613cf98184613c7f565b905095945050505050565b600081519050613d13816125ef565b92915050565b600060208284031215613d2f57613d2e6125b9565b5b6000613d3d84828501613d04565b9150509291505056fea2646970667358221220f5bdfd2c103cf9e7240e846a7052c416136616ec999f6c150b7ce7d05a3e8bce64736f6c634300081c0033",
  "linkReferences": {},
  "deployedLinkReferences": {}
}