{
    "_format": "hh-sol-artifact-1",
    "contractName": "AuctionManager",
    "sourceName": "contracts/AuctionManager.sol",
    "abi": [
        {
            "inputs": [],
            "stateMutability": "nonpayable",
            "type": "constructor"
        },
        {
            "anonymous": false,
            "inputs": [
                {
                    "indexed": true,
                    "internalType": "uint256",
                    "name": "auctionIndex",
                    "type": "uint256"
                },
                {
                    "indexed": false,
                    "internalType": "address",
                    "name": "contractAddress",
                    "type": "address"
                },
                {
                    "indexed": false,
                    "internalType": "uint256",
                    "name": "auctionId",
                    "type": "uint256"
                }
            ],
            "name": "AuctionForceEnded",
            "type": "event"
        },
        {
            "anonymous": false,
            "inputs": [
                {
                    "indexed": true,
                    "internalType": "uint256",
                    "name": "auctionIndex",
                    "type": "uint256"
                },
                {
                    "indexed": false,
                    "internalType": "enum AuctionManager.AuctionType",
                    "name": "auctionType",
                    "type": "uint8"
                },
                {
                    "indexed": false,
                    "internalType": "address",
                    "name": "contractAddress",
                    "type": "address"
                },
                {
                    "indexed": false,
                    "internalType": "uint256",
                    "name": "auctionId",
                    "type": "uint256"
                }
            ],
            "name": "AuctionRegistered",
            "type": "event"
        },
        {
            "inputs": [],
            "name": "admin",
            "outputs": [
                {
                    "internalType": "address",
                    "name": "",
                    "type": "address"
                }
            ],
            "stateMutability": "view",
            "type": "function"
        },
        {
            "inputs": [
                {
                    "internalType": "uint256",
                    "name": "",
                    "type": "uint256"
                }
            ],
            "name": "allAuctions",
            "outputs": [
                {
                    "internalType": "enum AuctionManager.AuctionType",
                    "name": "auctionType",
                    "type": "uint8"
                },
                {
                    "internalType": "address",
                    "name": "contractAddress",
                    "type": "address"
                },
                {
                    "internalType": "uint256",
                    "name": "auctionId",
                    "type": "uint256"
                }
            ],
            "stateMutability": "view",
            "type": "function"
        },
        {
            "inputs": [],
            "name": "auctionIndex",
            "outputs": [
                {
                    "internalType": "uint256",
                    "name": "",
                    "type": "uint256"
                }
            ],
            "stateMutability": "view",
            "type": "function"
        },
        {
            "inputs": [
                {
                    "internalType": "uint256",
                    "name": "index",
                    "type": "uint256"
                }
            ],
            "name": "forceEndAuction",
            "outputs": [],
            "stateMutability": "nonpayable",
            "type": "function"
        },
        {
            "inputs": [
                {
                    "internalType": "uint256",
                    "name": "index",
                    "type": "uint256"
                }
            ],
            "name": "getAuction",
            "outputs": [
                {
                    "components": [
                        {
                            "internalType": "enum AuctionManager.AuctionType",
                            "name": "auctionType",
                            "type": "uint8"
                        },
                        {
                            "internalType": "address",
                            "name": "contractAddress",
                            "type": "address"
                        },
                        {
                            "internalType": "uint256",
                            "name": "auctionId",
                            "type": "uint256"
                        }
                    ],
                    "internalType": "struct AuctionManager.AuctionInfo",
                    "name": "",
                    "type": "tuple"
                }
            ],
            "stateMutability": "view",
            "type": "function"
        },
        {
            "inputs": [
                {
                    "internalType": "enum AuctionManager.AuctionType",
                    "name": "auctionType",
                    "type": "uint8"
                },
                {
                    "internalType": "address",
                    "name": "auctionContract",
                    "type": "address"
                },
                {
                    "internalType": "uint256",
                    "name": "auctionId",
                    "type": "uint256"
                }
            ],
            "name": "registerAuction",
            "outputs": [],
            "stateMutability": "nonpayable",
            "type": "function"
        }
    ],
    "bytecode": "0x6080604052348015600f57600080fd5b50336000806101000a81548173ffffffffffffffffffffffffffffffffffffffff021916908373ffffffffffffffffffffffffffffffffffffffff160217905550610a888061005f6000396000f3fe608060405234801561001057600080fd5b50600436106100615760003560e01c8062f2f78f14610066578063165c58811461008257806378bd7935146100b45780637aacf03c146100e4578063c973c35914610102578063f851a4401461011e575b600080fd5b610080600480360381019061007b9190610734565b61013c565b005b61009c60048036038101906100979190610787565b61026d565b6040516100ab93929190610849565b60405180910390f35b6100ce60048036038101906100c99190610787565b6102c4565b6040516100db91906108ef565b60405180910390f35b6100ec61038c565b6040516100f9919061090a565b60405180910390f35b61011c60048036038101906101179190610787565b610392565b005b610126610609565b6040516101339190610925565b60405180910390f35b604051806060016040528084600181111561015a576101596107b4565b5b81526020018373ffffffffffffffffffffffffffffffffffffffff1681526020018281525060026000600154815260200190815260200160002060008201518160000160006101000a81548160ff021916908360018111156101bf576101be6107b4565b5b021790555060208201518160000160016101000a81548173ffffffffffffffffffffffffffffffffffffffff021916908373ffffffffffffffffffffffffffffffffffffffff160217905550604082015181600101559050506001547f4473863eb352c1f154f72f4dbbda71ead71b011a91738bc9d969668f1c356a4d84848460405161024e93929190610849565b60405180910390a2600160008154809291906001019190505550505050565b60026020528060005260406000206000915090508060000160009054906101000a900460ff16908060000160019054906101000a900473ffffffffffffffffffffffffffffffffffffffff16908060010154905083565b6102cc61062d565b600260008381526020019081526020016000206040518060600160405290816000820160009054906101000a900460ff16600181111561030f5761030e6107b4565b5b6001811115610321576103206107b4565b5b81526020016000820160019054906101000a900473ffffffffffffffffffffffffffffffffffffffff1673ffffffffffffffffffffffffffffffffffffffff1673ffffffffffffffffffffffffffffffffffffffff1681526020016001820154815250509050919050565b60015481565b60008054906101000a900473ffffffffffffffffffffffffffffffffffffffff1673ffffffffffffffffffffffffffffffffffffffff163373ffffffffffffffffffffffffffffffffffffffff1614610420576040517f08c379a00000000000000000000000000000000000000000000000000000000081526004016104179061099d565b60405180910390fd5b6000600260008381526020019081526020016000206040518060600160405290816000820160009054906101000a900460ff166001811115610465576104646107b4565b5b6001811115610477576104766107b4565b5b81526020016000820160019054906101000a900473ffffffffffffffffffffffffffffffffffffffff1673ffffffffffffffffffffffffffffffffffffffff1673ffffffffffffffffffffffffffffffffffffffff1681526020016001820154815250509050600073ffffffffffffffffffffffffffffffffffffffff16816020015173ffffffffffffffffffffffffffffffffffffffff1603610550576040517f08c379a000000000000000000000000000000000000000000000000000000000815260040161054790610a09565b60405180910390fd5b806020015173ffffffffffffffffffffffffffffffffffffffff1663c973c35982604001516040518263ffffffff1660e01b8152600401610591919061090a565b600060405180830381600087803b1580156105ab57600080fd5b505af11580156105bf573d6000803e3d6000fd5b50505050817fc4aa45ac7c2c844af979e0ce1db76ca3ed76bc44ee6c164e128b8feb1eee317d826020015183604001516040516105fd929190610a29565b60405180910390a25050565b60008054906101000a900473ffffffffffffffffffffffffffffffffffffffff1681565b60405180606001604052806000600181111561064c5761064b6107b4565b5b8152602001600073ffffffffffffffffffffffffffffffffffffffff168152602001600081525090565b600080fd5b6002811061068857600080fd5b50565b60008135905061069a8161067b565b92915050565b600073ffffffffffffffffffffffffffffffffffffffff82169050919050565b60006106cb826106a0565b9050919050565b6106db816106c0565b81146106e657600080fd5b50565b6000813590506106f8816106d2565b92915050565b6000819050919050565b610711816106fe565b811461071c57600080fd5b50565b60008135905061072e81610708565b92915050565b60008060006060848603121561074d5761074c610676565b5b600061075b8682870161068b565b935050602061076c868287016106e9565b925050604061077d8682870161071f565b9150509250925092565b60006020828403121561079d5761079c610676565b5b60006107ab8482850161071f565b91505092915050565b7f4e487b7100000000000000000000000000000000000000000000000000000000600052602160045260246000fd5b600281106107f4576107f36107b4565b5b50565b6000819050610805826107e3565b919050565b6000610815826107f7565b9050919050565b6108258161080a565b82525050565b610834816106c0565b82525050565b610843816106fe565b82525050565b600060608201905061085e600083018661081c565b61086b602083018561082b565b610878604083018461083a565b949350505050565b6108898161080a565b82525050565b610898816106c0565b82525050565b6108a7816106fe565b82525050565b6060820160008201516108c36000850182610880565b5060208201516108d6602085018261088f565b5060408201516108e9604085018261089e565b50505050565b600060608201905061090460008301846108ad565b92915050565b600060208201905061091f600083018461083a565b92915050565b600060208201905061093a600083018461082b565b92915050565b600082825260208201905092915050565b7f4e6f742061646d696e0000000000000000000000000000000000000000000000600082015250565b6000610987600983610940565b915061099282610951565b602082019050919050565b600060208201905081810360008301526109b68161097a565b9050919050565b7f496e76616c69642061756374696f6e0000000000000000000000000000000000600082015250565b60006109f3600f83610940565b91506109fe826109bd565b602082019050919050565b60006020820190508181036000830152610a22816109e6565b9050919050565b6000604082019050610a3e600083018561082b565b610a4b602083018461083a565b939250505056fea2646970667358221220f0f40fcaf9465e4fee9146284a1b89a6d8d74270da8685f81200f7a67ef8da6c64736f6c634300081c0033",
    "linkReferences": {},
    "deployedLinkReferences": {}
}