{
  "_format": "hh-sol-artifact-1",
  "contractName": "EnglishAuction",
  "sourceName": "contracts/EnglishAuction.sol",
  "abi": [
    {
      "inputs": [],
      "name": "AuctionAlreadyEnded",
      "type": "error"
    },
    {
      "inputs": [],
      "name": "AuctionNotEnded",
      "type": "error"
    },
    {
      "inputs": [],
      "name": "BiddingClosed",
      "type": "error"
    },
    {
      "inputs": [],
      "name": "InvalidPrice",
      "type": "error"
    },
    {
      "inputs": [],
      "name": "OnlySeller",
      "type": "error"
    },
    {
      "inputs": [],
      "name": "OnlyWinner",
      "type": "error"
    },
    {
      "anonymous": false,
      "inputs": [
        {
          "indexed": true,
          "internalType": "uint256",
          "name": "auctionId",
          "type": "uint256"
        },
        {
          "indexed": true,
          "internalType": "address",
          "name": "seller",
          "type": "address"
        },
        {
          "indexed": false,
          "internalType": "address",
          "name": "nftContract",
          "type": "address"
        },
        {
          "indexed": false,
          "internalType": "uint256",
          "name": "tokenId",
          "type": "uint256"
        },
        {
          "indexed": false,
          "internalType": "uint256",
          "name": "endTime",
          "type": "uint256"
        }
      ],
      "name": "AuctionCreated",
      "type": "event"
    },
    {
      "anonymous": false,
      "inputs": [
        {
          "indexed": true,
          "internalType": "uint256",
          "name": "auctionId",
          "type": "uint256"
        },
        {
          "indexed": false,
          "internalType": "address",
          "name": "winner",
          "type": "address"
        },
        {
          "indexed": false,
          "internalType": "uint256",
          "name": "amount",
          "type": "uint256"
        }
      ],
      "name": "AuctionEnded",
      "type": "event"
    },
    {
      "anonymous": false,
      "inputs": [
        {
          "indexed": true,
          "internalType": "uint256",
          "name": "auctionId",
          "type": "uint256"
        },
        {
          "indexed": true,
          "internalType": "address",
          "name": "bidder",
          "type": "address"
        },
        {
          "indexed": false,
          "internalType": "uint256",
          "name": "amount",
          "type": "uint256"
        }
      ],
      "name": "BidPlaced",
      "type": "event"
    },
    {
      "anonymous": false,
      "inputs": [
        {
          "indexed": true,
          "internalType": "uint256",
          "name": "auctionId",
          "type": "uint256"
        },
        {
          "indexed": false,
          "internalType": "address",
          "name": "seller",
          "type": "address"
        },
        {
          "indexed": false,
          "internalType": "uint256",
          "name": "amount",
          "type": "uint256"
        }
      ],
      "name": "FundsWithdrawn",
      "type": "event"
    },
    {
      "anonymous": false,
      "inputs": [
        {
          "indexed": true,
          "internalType": "uint256",
          "name": "auctionId",
          "type": "uint256"
        },
        {
          "indexed": false,
          "internalType": "address",
          "name": "winner",
          "type": "address"
        }
      ],
      "name": "NFTClaimed",
      "type": "event"
    },
    {
      "inputs": [],
      "name": "auctionCounter",
      "outputs": [
        {
          "internalType": "uint256",
          "name": "",
          "type": "uint256"
        }
      ],
      "stateMutability": "view",
      "type": "function"
    },
    {
      "inputs": [
        {
          "internalType": "uint256",
          "name": "",
          "type": "uint256"
        }
      ],
      "name": "auctions",
      "outputs": [
        {
          "internalType": "address",
          "name": "seller",
          "type": "address"
        },
        {
          "internalType": "address",
          "name": "nftContract",
          "type": "address"
        },
        {
          "internalType": "uint256",
          "name": "tokenId",
          "type": "uint256"
        },
        {
          "internalType": "uint256",
          "name": "endTime",
          "type": "uint256"
        },
        {
          "internalType": "uint256",
          "name": "highestBid",
          "type": "uint256"
        },
        {
          "internalType": "address",
          "name": "highestBidder",
          "type": "address"
        },
        {
          "internalType": "bool",
          "name": "ended",
          "type": "bool"
        }
      ],
      "stateMutability": "view",
      "type": "function"
    },
    {
      "inputs": [
        {
          "internalType": "uint256",
          "name": "",
          "type": "uint256"
        },
        {
          "internalType": "address",
          "name": "",
          "type": "address"
        }
      ],
      "name": "bids",
      "outputs": [
        {
          "internalType": "uint256",
          "name": "",
          "type": "uint256"
        }
      ],
      "stateMutability": "view",
      "type": "function"
    },
    {
      "inputs": [
        {
          "internalType": "uint256",
          "name": "auctionId",
          "type": "uint256"
        }
      ],
      "name": "claimNFT",
      "outputs": [],
      "stateMutability": "nonpayable",
      "type": "function"
    },
    {
      "inputs": [
        {
          "internalType": "address",
          "name": "_nftContract",
          "type": "address"
        },
        {
          "internalType": "uint256",
          "name": "_tokenId",
          "type": "uint256"
        },
        {
          "internalType": "uint256",
          "name": "_duration",
          "type": "uint256"
        },
        {
          "internalType": "uint256",
          "name": "_startingBid",
          "type": "uint256"
        }
      ],
      "name": "createAuction",
      "outputs": [],
      "stateMutability": "nonpayable",
      "type": "function"
    },
    {
      "inputs": [
        {
          "internalType": "uint256",
          "name": "auctionId",
          "type": "uint256"
        }
      ],
      "name": "endAuction",
      "outputs": [],
      "stateMutability": "nonpayable",
      "type": "function"
    },
    {
      "inputs": [
        {
          "internalType": "uint256",
          "name": "auctionId",
          "type": "uint256"
        }
      ],
      "name": "placeBid",
      "outputs": [],
      "stateMutability": "payable",
      "type": "function"
    },
    {
      "inputs": [
        {
          "internalType": "uint256",
          "name": "auctionId",
          "type": "uint256"
        }
      ],
      "name": "withdrawFunds",
      "outputs": [],
      "stateMutability": "nonpayable",
      "type": "function"
    },
    {
      "inputs": [
        {
          "internalType": "uint256",
          "name": "auctionId",
          "type": "uint256"
        }
      ],
      "name": "withdrawRefund",
      "outputs": [],
      "stateMutability": "nonpayable",
      "type": "function"
    }
  ],
  "bytecode": "0x6080604052348015600f57600080fd5b506001600081905550611350806100276000396000f3fe6080604052600436106100865760003560e01c80639979ef45116100595780639979ef451461015d5780639d15349514610179578063a7e76644146101a2578063b9a2de3a146101cd578063fe5c873a146101f657610086565b8063155dd5ee1461008b5780633f1ffcec146100b4578063571a26a0146100f157806361beb1d714610134575b600080fd5b34801561009757600080fd5b506100b260048036038101906100ad9190610f27565b61021f565b005b3480156100c057600080fd5b506100db60048036038101906100d69190610fb2565b6103f6565b6040516100e89190611001565b60405180910390f35b3480156100fd57600080fd5b5061011860048036038101906101139190610f27565b61041b565b60405161012b9796959493929190611046565b60405180910390f35b34801561014057600080fd5b5061015b600480360381019061015691906110b5565b6104ca565b005b61017760048036038101906101729190610f27565b610799565b005b34801561018557600080fd5b506101a0600480360381019061019b9190610f27565b6109f6565b005b3480156101ae57600080fd5b506101b7610b25565b6040516101c49190611001565b60405180910390f35b3480156101d957600080fd5b506101f460048036038101906101ef9190610f27565b610b2b565b005b34801561020257600080fd5b5061021d60048036038101906102189190610f27565b610c92565b005b806001548110610264576040517f08c379a000000000000000000000000000000000000000000000000000000000815260040161025b90611179565b60405180910390fd5b61026c610e93565b60006002600084815260200190815260200160002090508060050160149054906101000a900460ff166102cb576040517f6463738900000000000000000000000000000000000000000000000000000000815260040160405180910390fd5b8060000160009054906101000a900473ffffffffffffffffffffffffffffffffffffffff1673ffffffffffffffffffffffffffffffffffffffff163373ffffffffffffffffffffffffffffffffffffffff1614610354576040517f85d1f72600000000000000000000000000000000000000000000000000000000815260040160405180910390fd5b600081600401549050600082600401819055503373ffffffffffffffffffffffffffffffffffffffff166108fc829081150290604051600060405180830381858888f193505050501580156103ad573d6000803e3d6000fd5b50837ff440aec6b52895984d061d622e6edeba6210f7c3e059be920663140c084560d733836040516103e0929190611199565b60405180910390a250506103f2610ee2565b5050565b6003602052816000526040600020602052806000526040600020600091509150505481565b60026020528060005260406000206000915090508060000160009054906101000a900473ffffffffffffffffffffffffffffffffffffffff16908060010160009054906101000a900473ffffffffffffffffffffffffffffffffffffffff16908060020154908060030154908060040154908060050160009054906101000a900473ffffffffffffffffffffffffffffffffffffffff16908060050160149054906101000a900460ff16905087565b60008203610503576040517ebfc92100000000000000000000000000000000000000000000000000000000815260040160405180910390fd5b8373ffffffffffffffffffffffffffffffffffffffff166323b872dd3330866040518463ffffffff1660e01b8152600401610540939291906111c2565b600060405180830381600087803b15801561055a57600080fd5b505af115801561056e573d6000803e3d6000fd5b505050506040518060e001604052803373ffffffffffffffffffffffffffffffffffffffff1681526020018573ffffffffffffffffffffffffffffffffffffffff16815260200184815260200183426105c79190611228565b8152602001828152602001600073ffffffffffffffffffffffffffffffffffffffff1681526020016000151581525060026000600154815260200190815260200160002060008201518160000160006101000a81548173ffffffffffffffffffffffffffffffffffffffff021916908373ffffffffffffffffffffffffffffffffffffffff16021790555060208201518160010160006101000a81548173ffffffffffffffffffffffffffffffffffffffff021916908373ffffffffffffffffffffffffffffffffffffffff16021790555060408201518160020155606082015181600301556080820151816004015560a08201518160050160006101000a81548173ffffffffffffffffffffffffffffffffffffffff021916908373ffffffffffffffffffffffffffffffffffffffff16021790555060c08201518160050160146101000a81548160ff0219169083151502179055509050503373ffffffffffffffffffffffffffffffffffffffff166001547f1e9fc4128626f087a2c46b8f819387ca9e130c81ced063176def67bc205b3b008686864261076a9190611228565b6040516107799392919061125c565b60405180910390a360016000815480929190600101919050555050505050565b8060015481106107de576040517f08c379a00000000000000000000000000000000000000000000000000000000081526004016107d590611179565b60405180910390fd5b600060026000848152602001908152602001600020905080600301544210610832576040517f8083ad0300000000000000000000000000000000000000000000000000000000815260040160405180910390fd5b8060040154341161086e576040517ebfc92100000000000000000000000000000000000000000000000000000000815260040160405180910390fd5b600073ffffffffffffffffffffffffffffffffffffffff168160050160009054906101000a900473ffffffffffffffffffffffffffffffffffffffff1673ffffffffffffffffffffffffffffffffffffffff16146109565780600401546003600085815260200190815260200160002060008360050160009054906101000a900473ffffffffffffffffffffffffffffffffffffffff1673ffffffffffffffffffffffffffffffffffffffff1673ffffffffffffffffffffffffffffffffffffffff168152602001908152602001600020600082825461094e9190611228565b925050819055505b348160040181905550338160050160006101000a81548173ffffffffffffffffffffffffffffffffffffffff021916908373ffffffffffffffffffffffffffffffffffffffff1602179055503373ffffffffffffffffffffffffffffffffffffffff16837f0e54eff26401bf69b81b26f60bd85ef47f5d85275c1d268d84f68d6897431c47346040516109e99190611001565b60405180910390a3505050565b60006003600083815260200190815260200160002060003373ffffffffffffffffffffffffffffffffffffffff1673ffffffffffffffffffffffffffffffffffffffff16815260200190815260200160002054905060008103610a84576040517ebfc92100000000000000000000000000000000000000000000000000000000815260040160405180910390fd5b60006003600084815260200190815260200160002060003373ffffffffffffffffffffffffffffffffffffffff1673ffffffffffffffffffffffffffffffffffffffff168152602001908152602001600020819055503373ffffffffffffffffffffffffffffffffffffffff166108fc829081150290604051600060405180830381858888f19350505050158015610b20573d6000803e3d6000fd5b505050565b60015481565b806001548110610b70576040517f08c379a0000000000000000000000000000000000000000000000000000000008152600401610b6790611179565b60405180910390fd5b60006002600084815260200190815260200160002090508060030154421015610bc5576040517f6463738900000000000000000000000000000000000000000000000000000000815260040160405180910390fd5b8060050160149054906101000a900460ff1615610c0e576040517fd02e774d00000000000000000000000000000000000000000000000000000000815260040160405180910390fd5b60018160050160146101000a81548160ff021916908315150217905550827fd2aa34a4fdbbc6dff6a3e56f46e0f3ae2a31d7785ff3487aa5c95c642acea5018260050160009054906101000a900473ffffffffffffffffffffffffffffffffffffffff168360040154604051610c85929190611199565b60405180910390a2505050565b806001548110610cd7576040517f08c379a0000000000000000000000000000000000000000000000000000000008152600401610cce90611179565b60405180910390fd5b60006002600084815260200190815260200160002090508060050160149054906101000a900460ff16610d36576040517f6463738900000000000000000000000000000000000000000000000000000000815260040160405180910390fd5b8060050160009054906101000a900473ffffffffffffffffffffffffffffffffffffffff1673ffffffffffffffffffffffffffffffffffffffff163373ffffffffffffffffffffffffffffffffffffffff1614610dbf576040517f760576b900000000000000000000000000000000000000000000000000000000815260040160405180910390fd5b8060010160009054906101000a900473ffffffffffffffffffffffffffffffffffffffff1673ffffffffffffffffffffffffffffffffffffffff166323b872dd303384600201546040518463ffffffff1660e01b8152600401610e24939291906111c2565b600060405180830381600087803b158015610e3e57600080fd5b505af1158015610e52573d6000803e3d6000fd5b50505050827fec5f0dee1fc3c7beab746dbd5883eee3f1c9bc07fe02dd318c553c5243f52fea33604051610e869190611293565b60405180910390a2505050565b600260005403610ed8576040517f08c379a0000000000000000000000000000000000000000000000000000000008152600401610ecf906112fa565b60405180910390fd5b6002600081905550565b6001600081905550565b600080fd5b6000819050919050565b610f0481610ef1565b8114610f0f57600080fd5b50565b600081359050610f2181610efb565b92915050565b600060208284031215610f3d57610f3c610eec565b5b6000610f4b84828501610f12565b91505092915050565b600073ffffffffffffffffffffffffffffffffffffffff82169050919050565b6000610f7f82610f54565b9050919050565b610f8f81610f74565b8114610f9a57600080fd5b50565b600081359050610fac81610f86565b92915050565b60008060408385031215610fc957610fc8610eec565b5b6000610fd785828601610f12565b9250506020610fe885828601610f9d565b9150509250929050565b610ffb81610ef1565b82525050565b60006020820190506110166000830184610ff2565b92915050565b61102581610f74565b82525050565b60008115159050919050565b6110408161102b565b82525050565b600060e08201905061105b600083018a61101c565b611068602083018961101c565b6110756040830188610ff2565b6110826060830187610ff2565b61108f6080830186610ff2565b61109c60a083018561101c565b6110a960c0830184611037565b98975050505050505050565b600080600080608085870312156110cf576110ce610eec565b5b60006110dd87828801610f9d565b94505060206110ee87828801610f12565b93505060406110ff87828801610f12565b925050606061111087828801610f12565b91505092959194509250565b600082825260208201905092915050565b7f41756374696f6e20646f6573206e6f7420657869737400000000000000000000600082015250565b600061116360168361111c565b915061116e8261112d565b602082019050919050565b6000602082019050818103600083015261119281611156565b9050919050565b60006040820190506111ae600083018561101c565b6111bb6020830184610ff2565b9392505050565b60006060820190506111d7600083018661101c565b6111e4602083018561101c565b6111f16040830184610ff2565b949350505050565b7f4e487b7100000000000000000000000000000000000000000000000000000000600052601160045260246000fd5b600061123382610ef1565b915061123e83610ef1565b9250828201905080821115611256576112556111f9565b5b92915050565b6000606082019050611271600083018661101c565b61127e6020830185610ff2565b61128b6040830184610ff2565b949350505050565b60006020820190506112a8600083018461101c565b92915050565b7f5265656e7472616e637947756172643a207265656e7472616e742063616c6c00600082015250565b60006112e4601f8361111c565b91506112ef826112ae565b602082019050919050565b60006020820190508181036000830152611313816112d7565b905091905056fea2646970667358221220566e87bef5b0ab68f8290829ee766cfb88da0eb11eb64e6c354fe9d54bd4209c64736f6c634300081c0033",
  "linkReferences": {},
  "deployedLinkReferences": {}
}