{
  "_format": "hh-sol-artifact-1",
  "contractName": "Marketplace",
  "sourceName": "contracts/Marketplace.sol",
  "abi": [
    {
      "inputs": [],
      "name": "AlreadySold",
      "type": "error"
    },
    {
      "inputs": [],
      "name": "IncorrectAmount",
      "type": "error"
    },
    {
      "inputs": [],
      "name": "InvalidPrice",
      "type": "error"
    },
    {
      "anonymous": false,
      "inputs": [
        {
          "indexed": true,
          "internalType": "uint256",
          "name": "listingId",
          "type": "uint256"
        },
        {
          "indexed": true,
          "internalType": "address",
          "name": "seller",
          "type": "address"
        },
        {
          "indexed": false,
          "internalType": "uint256",
          "name": "price",
          "type": "uint256"
        }
      ],
      "name": "Listed",
      "type": "event"
    },
    {
      "anonymous": false,
      "inputs": [
        {
          "indexed": true,
          "internalType": "uint256",
          "name": "listingId",
          "type": "uint256"
        },
        {
          "indexed": true,
          "internalType": "address",
          "name": "buyer",
          "type": "address"
        },
        {
          "indexed": false,
          "internalType": "uint256",
          "name": "price",
          "type": "uint256"
        }
      ],
      "name": "Purchased",
      "type": "event"
    },
    {
      "inputs": [
        {
          "internalType": "uint256",
          "name": "listingId",
          "type": "uint256"
        }
      ],
      "name": "buyNFT",
      "outputs": [],
      "stateMutability": "payable",
      "type": "function"
    },
    {
      "inputs": [
        {
          "internalType": "address",
          "name": "nftContract",
          "type": "address"
        },
        {
          "internalType": "uint256",
          "name": "tokenId",
          "type": "uint256"
        },
        {
          "internalType": "uint256",
          "name": "price",
          "type": "uint256"
        }
      ],
      "name": "listNFT",
      "outputs": [],
      "stateMutability": "nonpayable",
      "type": "function"
    },
    {
      "inputs": [],
      "name": "listingCount",
      "outputs": [
        {
          "internalType": "uint256",
          "name": "",
          "type": "uint256"
        }
      ],
      "stateMutability": "view",
      "type": "function"
    },
    {
      "inputs": [
        {
          "internalType": "uint256",
          "name": "",
          "type": "uint256"
        }
      ],
      "name": "listings",
      "outputs": [
        {
          "internalType": "address",
          "name": "seller",
          "type": "address"
        },
        {
          "internalType": "address",
          "name": "nftContract",
          "type": "address"
        },
        {
          "internalType": "uint256",
          "name": "tokenId",
          "type": "uint256"
        },
        {
          "internalType": "uint256",
          "name": "price",
          "type": "uint256"
        },
        {
          "internalType": "bool",
          "name": "sold",
          "type": "bool"
        }
      ],
      "stateMutability": "view",
      "type": "function"
    }
  ],
  "bytecode": "0x6080604052348015600f57600080fd5b5060016000819055506108e0806100276000396000f3fe60806040526004361061003f5760003560e01c806351ed828814610044578063a9b07c2614610060578063ad05f1b41461008b578063de74e57b146100b4575b600080fd5b61005e60048036038101906100599190610671565b6100f5565b005b34801561006c57600080fd5b50610075610314565b60405161008291906106ad565b60405180910390f35b34801561009757600080fd5b506100b260048036038101906100ad9190610726565b61031a565b005b3480156100c057600080fd5b506100db60048036038101906100d69190610671565b61055a565b6040516100ec9594939291906107a3565b60405180910390f35b6100fd6105dd565b60006002600083815260200190815260200160002090508060040160009054906101000a900460ff161561015d576040517fda17dbf800000000000000000000000000000000000000000000000000000000815260040160405180910390fd5b8060030154341461019a576040517f69640e7200000000000000000000000000000000000000000000000000000000815260040160405180910390fd5b60018160040160006101000a81548160ff0219169083151502179055508060010160009054906101000a900473ffffffffffffffffffffffffffffffffffffffff1673ffffffffffffffffffffffffffffffffffffffff166323b872dd303384600201546040518463ffffffff1660e01b815260040161021c939291906107f6565b600060405180830381600087803b15801561023657600080fd5b505af115801561024a573d6000803e3d6000fd5b505050508060000160009054906101000a900473ffffffffffffffffffffffffffffffffffffffff1673ffffffffffffffffffffffffffffffffffffffff166108fc349081150290604051600060405180830381858888f193505050501580156102b8573d6000803e3d6000fd5b503373ffffffffffffffffffffffffffffffffffffffff16827ffd51b2c9f55c42d2b72ac683526519563be02fc0107f034ff430c05185ff1b663460405161030091906106ad565b60405180910390a35061031161062c565b50565b60015481565b60008103610353576040517ebfc92100000000000000000000000000000000000000000000000000000000815260040160405180910390fd5b8273ffffffffffffffffffffffffffffffffffffffff166323b872dd3330856040518463ffffffff1660e01b8152600401610390939291906107f6565b600060405180830381600087803b1580156103aa57600080fd5b505af11580156103be573d6000803e3d6000fd5b505050506040518060a001604052803373ffffffffffffffffffffffffffffffffffffffff1681526020018473ffffffffffffffffffffffffffffffffffffffff1681526020018381526020018281526020016000151581525060026000600154815260200190815260200160002060008201518160000160006101000a81548173ffffffffffffffffffffffffffffffffffffffff021916908373ffffffffffffffffffffffffffffffffffffffff16021790555060208201518160010160006101000a81548173ffffffffffffffffffffffffffffffffffffffff021916908373ffffffffffffffffffffffffffffffffffffffff160217905550604082015181600201556060820151816003015560808201518160040160006101000a81548160ff0219169083151502179055509050503373ffffffffffffffffffffffffffffffffffffffff166001547f50955776c5778c3b7d968d86d8c51fb6b29a7a74c20866b533268e209fc083438360405161053b91906106ad565b60405180910390a3600160008154809291906001019190505550505050565b60026020528060005260406000206000915090508060000160009054906101000a900473ffffffffffffffffffffffffffffffffffffffff16908060010160009054906101000a900473ffffffffffffffffffffffffffffffffffffffff16908060020154908060030154908060040160009054906101000a900460ff16905085565b600260005403610622576040517f08c379a00000000000000000000000000000000000000000000000000000000081526004016106199061088a565b60405180910390fd5b6002600081905550565b6001600081905550565b600080fd5b6000819050919050565b61064e8161063b565b811461065957600080fd5b50565b60008135905061066b81610645565b92915050565b60006020828403121561068757610686610636565b5b60006106958482850161065c565b91505092915050565b6106a78161063b565b82525050565b60006020820190506106c2600083018461069e565b92915050565b600073ffffffffffffffffffffffffffffffffffffffff82169050919050565b60006106f3826106c8565b9050919050565b610703816106e8565b811461070e57600080fd5b50565b600081359050610720816106fa565b92915050565b60008060006060848603121561073f5761073e610636565b5b600061074d86828701610711565b935050602061075e8682870161065c565b925050604061076f8682870161065c565b9150509250925092565b610782816106e8565b82525050565b60008115159050919050565b61079d81610788565b82525050565b600060a0820190506107b86000830188610779565b6107c56020830187610779565b6107d2604083018661069e565b6107df606083018561069e565b6107ec6080830184610794565b9695505050505050565b600060608201905061080b6000830186610779565b6108186020830185610779565b610825604083018461069e565b949350505050565b600082825260208201905092915050565b7f5265656e7472616e637947756172643a207265656e7472616e742063616c6c00600082015250565b6000610874601f8361082d565b915061087f8261083e565b602082019050919050565b600060208201905081810360008301526108a381610867565b905091905056fea2646970667358221220c0fb964c5a03d90688f8c385cdd76e98a6c30d22045fa46c736c47518d2c198564736f6c634300081c0033",
  "linkReferences": {},
  "deployedLinkReferences": {}
}